{
  "contracts/DragonBallAuction.sol": {
    "DragonBallAuction": {
      "abi": [
        {
          "inputs": [
            {
              "internalType": "contract IERC721",
              "name": "_nft",
              "type": "address"
            }
          ],
          "stateMutability": "nonpayable",
          "type": "constructor"
        },
        {
          "anonymous": false,
          "inputs": [
            {
              "indexed": true,
              "internalType": "address",
              "name": "_from",
              "type": "address"
            },
            {
              "indexed": false,
              "internalType": "uint256",
              "name": "_auctionId",
              "type": "uint256"
            },
            {
              "indexed": false,
              "internalType": "uint256",
              "name": "_tokenId",
              "type": "uint256"
            },
            {
              "indexed": true,
              "internalType": "address",
              "name": "_auctioneer",
              "type": "address"
            },
            {
              "indexed": true,
              "internalType": "address",
              "name": "_previousBidder",
              "type": "address"
            }
          ],
          "name": "CancelAuction",
          "type": "event"
        },
        {
          "anonymous": false,
          "inputs": [
            {
              "indexed": true,
              "internalType": "address",
              "name": "_from",
              "type": "address"
            },
            {
              "indexed": false,
              "internalType": "uint256",
              "name": "_auctionId",
              "type": "uint256"
            },
            {
              "indexed": false,
              "internalType": "uint256",
              "name": "_tokenId",
              "type": "uint256"
            },
            {
              "indexed": false,
              "internalType": "uint256",
              "name": "_initialPrice",
              "type": "uint256"
            },
            {
              "indexed": false,
              "internalType": "uint256",
              "name": "_startTime",
              "type": "uint256"
            },
            {
              "indexed": false,
              "internalType": "uint256",
              "name": "_endTime",
              "type": "uint256"
            }
          ],
          "name": "CreateAuction",
          "type": "event"
        },
        {
          "anonymous": false,
          "inputs": [
            {
              "indexed": true,
              "internalType": "address",
              "name": "_from",
              "type": "address"
            },
            {
              "indexed": false,
              "internalType": "uint256",
              "name": "_auctionId",
              "type": "uint256"
            },
            {
              "indexed": false,
              "internalType": "uint256",
              "name": "_tokenId",
              "type": "uint256"
            },
            {
              "indexed": false,
              "internalType": "uint256",
              "name": "_price",
              "type": "uint256"
            },
            {
              "indexed": true,
              "internalType": "address",
              "name": "_auctioneer",
              "type": "address"
            },
            {
              "indexed": true,
              "internalType": "address",
              "name": "_lastBidder",
              "type": "address"
            }
          ],
          "name": "FinishAuction",
          "type": "event"
        },
        {
          "anonymous": false,
          "inputs": [
            {
              "indexed": true,
              "internalType": "address",
              "name": "_from",
              "type": "address"
            },
            {
              "indexed": false,
              "internalType": "uint256",
              "name": "_auctionId",
              "type": "uint256"
            },
            {
              "indexed": false,
              "internalType": "uint256",
              "name": "_bidPrice",
              "type": "uint256"
            },
            {
              "indexed": true,
              "internalType": "address",
              "name": "_previousBidder",
              "type": "address"
            }
          ],
          "name": "JoinAuction",
          "type": "event"
        },
        {
          "anonymous": false,
          "inputs": [
            {
              "indexed": true,
              "internalType": "address",
              "name": "previousOwner",
              "type": "address"
            },
            {
              "indexed": true,
              "internalType": "address",
              "name": "newOwner",
              "type": "address"
            }
          ],
          "name": "OwnershipTransferred",
          "type": "event"
        },
        {
          "inputs": [],
          "name": "AUCTION_SERVICE_FEE_RATE",
          "outputs": [
            {
              "internalType": "uint256",
              "name": "",
              "type": "uint256"
            }
          ],
          "stateMutability": "view",
          "type": "function"
        },
        {
          "inputs": [],
          "name": "MINIMUM_BID_RATE",
          "outputs": [
            {
              "internalType": "uint256",
              "name": "",
              "type": "uint256"
            }
          ],
          "stateMutability": "view",
          "type": "function"
        },
        {
          "inputs": [
            {
              "internalType": "uint256",
              "name": "_auctionId",
              "type": "uint256"
            }
          ],
          "name": "cancelAuction",
          "outputs": [],
          "stateMutability": "nonpayable",
          "type": "function"
        },
        {
          "inputs": [
            {
              "internalType": "uint256",
              "name": "_tokenId",
              "type": "uint256"
            },
            {
              "internalType": "uint256",
              "name": "_initialPrice",
              "type": "uint256"
            },
            {
              "internalType": "uint256",
              "name": "_startTime",
              "type": "uint256"
            },
            {
              "internalType": "uint256",
              "name": "_endTime",
              "type": "uint256"
            }
          ],
          "name": "createAuction",
          "outputs": [],
          "stateMutability": "nonpayable",
          "type": "function"
        },
        {
          "inputs": [
            {
              "internalType": "uint256",
              "name": "_auctionId",
              "type": "uint256"
            }
          ],
          "name": "finishAuction",
          "outputs": [],
          "stateMutability": "nonpayable",
          "type": "function"
        },
        {
          "inputs": [
            {
              "internalType": "uint256",
              "name": "_auctionId",
              "type": "uint256"
            }
          ],
          "name": "getAuction",
          "outputs": [
            {
              "components": [
                {
                  "internalType": "address",
                  "name": "auctioneer",
                  "type": "address"
                },
                {
                  "internalType": "uint256",
                  "name": "_tokenId",
                  "type": "uint256"
                },
                {
                  "internalType": "uint256",
                  "name": "initialPrice",
                  "type": "uint256"
                },
                {
                  "internalType": "address",
                  "name": "previousBidder",
                  "type": "address"
                },
                {
                  "internalType": "uint256",
                  "name": "lastBid",
                  "type": "uint256"
                },
                {
                  "internalType": "address",
                  "name": "lastBidder",
                  "type": "address"
                },
                {
                  "internalType": "uint256",
                  "name": "startTime",
                  "type": "uint256"
                },
                {
                  "internalType": "uint256",
                  "name": "endTime",
                  "type": "uint256"
                },
                {
                  "internalType": "bool",
                  "name": "completed",
                  "type": "bool"
                },
                {
                  "internalType": "bool",
                  "name": "active",
                  "type": "bool"
                },
                {
                  "internalType": "uint256",
                  "name": "auctionId",
                  "type": "uint256"
                }
              ],
              "internalType": "struct DragonBallAuction.AuctionInfo",
              "name": "",
              "type": "tuple"
            }
          ],
          "stateMutability": "view",
          "type": "function"
        },
        {
          "inputs": [
            {
              "internalType": "bool",
              "name": "_active",
              "type": "bool"
            }
          ],
          "name": "getAuctionByStatus",
          "outputs": [
            {
              "components": [
                {
                  "internalType": "address",
                  "name": "auctioneer",
                  "type": "address"
                },
                {
                  "internalType": "uint256",
                  "name": "_tokenId",
                  "type": "uint256"
                },
                {
                  "internalType": "uint256",
                  "name": "initialPrice",
                  "type": "uint256"
                },
                {
                  "internalType": "address",
                  "name": "previousBidder",
                  "type": "address"
                },
                {
                  "internalType": "uint256",
                  "name": "lastBid",
                  "type": "uint256"
                },
                {
                  "internalType": "address",
                  "name": "lastBidder",
                  "type": "address"
                },
                {
                  "internalType": "uint256",
                  "name": "startTime",
                  "type": "uint256"
                },
                {
                  "internalType": "uint256",
                  "name": "endTime",
                  "type": "uint256"
                },
                {
                  "internalType": "bool",
                  "name": "completed",
                  "type": "bool"
                },
                {
                  "internalType": "bool",
                  "name": "active",
                  "type": "bool"
                },
                {
                  "internalType": "uint256",
                  "name": "auctionId",
                  "type": "uint256"
                }
              ],
              "internalType": "struct DragonBallAuction.AuctionInfo[]",
              "name": "",
              "type": "tuple[]"
            }
          ],
          "stateMutability": "view",
          "type": "function"
        },
        {
          "inputs": [
            {
              "internalType": "uint256",
              "name": "_auctionId",
              "type": "uint256"
            }
          ],
          "name": "joinAuction",
          "outputs": [],
          "stateMutability": "payable",
          "type": "function"
        },
        {
          "inputs": [
            {
              "internalType": "address",
              "name": "",
              "type": "address"
            },
            {
              "internalType": "address",
              "name": "",
              "type": "address"
            },
            {
              "internalType": "uint256",
              "name": "",
              "type": "uint256"
            },
            {
              "internalType": "bytes",
              "name": "",
              "type": "bytes"
            }
          ],
          "name": "onERC721Received",
          "outputs": [
            {
              "internalType": "bytes4",
              "name": "",
              "type": "bytes4"
            }
          ],
          "stateMutability": "pure",
          "type": "function"
        },
        {
          "inputs": [],
          "name": "owner",
          "outputs": [
            {
              "internalType": "address",
              "name": "",
              "type": "address"
            }
          ],
          "stateMutability": "view",
          "type": "function"
        },
        {
          "inputs": [],
          "name": "renounceOwnership",
          "outputs": [],
          "stateMutability": "nonpayable",
          "type": "function"
        },
        {
          "inputs": [
            {
              "internalType": "address",
              "name": "newOwner",
              "type": "address"
            }
          ],
          "name": "transferOwnership",
          "outputs": [],
          "stateMutability": "nonpayable",
          "type": "function"
        }
      ],
      "evm": {
        "bytecode": {
          "linkReferences": {},
          "object": "60806040523480156200001157600080fd5b50604051620035ac380380620035ac8339818101604052810190620000379190620001e9565b620000576200004b6200009f60201b60201c565b620000a760201b60201c565b80600160006101000a81548173ffffffffffffffffffffffffffffffffffffffff021916908373ffffffffffffffffffffffffffffffffffffffff160217905550506200021b565b600033905090565b60008060009054906101000a900473ffffffffffffffffffffffffffffffffffffffff169050816000806101000a81548173ffffffffffffffffffffffffffffffffffffffff021916908373ffffffffffffffffffffffffffffffffffffffff1602179055508173ffffffffffffffffffffffffffffffffffffffff168173ffffffffffffffffffffffffffffffffffffffff167f8be0079c531659141344cd1fd0a4f28419497f9722a3daafe3b4186f6b6457e060405160405180910390a35050565b600080fd5b600073ffffffffffffffffffffffffffffffffffffffff82169050919050565b60006200019d8262000170565b9050919050565b6000620001b18262000190565b9050919050565b620001c381620001a4565b8114620001cf57600080fd5b50565b600081519050620001e381620001b8565b92915050565b6000602082840312156200020257620002016200016b565b5b60006200021284828501620001d2565b91505092915050565b613381806200022b6000396000f3fe6080604052600436106100a75760003560e01c806396b5a7551161006457806396b5a755146101bc578063bd0a079d146101e5578063c00a6fb714610210578063cf266ed01461024d578063f0194f8914610276578063f2fde38b14610292576100a7565b8063150b7a02146100ac578063431f21da146100e95780636aadfdd014610112578063715018a61461013d57806378bd7935146101545780638da5cb5b14610191575b600080fd5b3480156100b857600080fd5b506100d360048036038101906100ce9190612365565b6102bb565b6040516100e09190612428565b60405180910390f35b3480156100f557600080fd5b50610110600480360381019061010b9190612443565b6102e9565b005b34801561011e57600080fd5b506101276108ab565b60405161013491906124b9565b60405180910390f35b34801561014957600080fd5b506101526108b0565b005b34801561016057600080fd5b5061017b600480360381019061017691906124d4565b6108c4565b604051610188919061261b565b60405180910390f35b34801561019d57600080fd5b506101a6610a75565b6040516101b39190612646565b60405180910390f35b3480156101c857600080fd5b506101e360048036038101906101de91906124d4565b610a9e565b005b3480156101f157600080fd5b506101fa61104d565b60405161020791906124b9565b60405180910390f35b34801561021c57600080fd5b506102376004803603810190610232919061268d565b611052565b604051610244919061284b565b60405180910390f35b34801561025957600080fd5b50610274600480360381019061026f91906124d4565b61134d565b005b610290600480360381019061028b91906124d4565b611a30565b005b34801561029e57600080fd5b506102b960048036038101906102b4919061286d565b611ff5565b005b60007f150b7a023d4804d13e8c85fb27262cb750cf6ba9f9dd3bb30d90f482ceeb4b1f905095945050505050565b8142111561032c576040517f08c379a0000000000000000000000000000000000000000000000000000000008152600401610323906128f7565b60405180910390fd5b80821061036e576040517f08c379a000000000000000000000000000000000000000000000000000000000815260040161036590612989565b60405180910390fd5b826000106103b1576040517f08c379a00000000000000000000000000000000000000000000000000000000081526004016103a890612a1b565b60405180910390fd5b3373ffffffffffffffffffffffffffffffffffffffff16600160009054906101000a900473ffffffffffffffffffffffffffffffffffffffff1673ffffffffffffffffffffffffffffffffffffffff16636352211e866040518263ffffffff1660e01b815260040161042391906124b9565b602060405180830381865afa158015610440573d6000803e3d6000fd5b505050506040513d601f19601f820116820180604052508101906104649190612a50565b73ffffffffffffffffffffffffffffffffffffffff16146104ba576040517f08c379a00000000000000000000000000000000000000000000000000000000081526004016104b190612ac9565b60405180910390fd5b600160009054906101000a900473ffffffffffffffffffffffffffffffffffffffff1673ffffffffffffffffffffffffffffffffffffffff1663e985e9c533306040518363ffffffff1660e01b8152600401610517929190612ae9565b602060405180830381865afa158015610534573d6000803e3d6000fd5b505050506040513d601f19601f820116820180604052508101906105589190612b27565b610597576040517f08c379a000000000000000000000000000000000000000000000000000000000815260040161058e90612bc6565b60405180910390fd5b600160009054906101000a900473ffffffffffffffffffffffffffffffffffffffff1673ffffffffffffffffffffffffffffffffffffffff166342842e0e3330876040518463ffffffff1660e01b81526004016105f693929190612be6565b600060405180830381600087803b15801561061057600080fd5b505af1158015610624573d6000803e3d6000fd5b5050505060006040518061016001604052803373ffffffffffffffffffffffffffffffffffffffff168152602001868152602001858152602001600073ffffffffffffffffffffffffffffffffffffffff168152602001858152602001600073ffffffffffffffffffffffffffffffffffffffff168152602001848152602001838152602001600015158152602001600115158152602001600280549050815250905060028190806001815401808255809150506001900390600052602060002090600a020160009091909190915060008201518160000160006101000a81548173ffffffffffffffffffffffffffffffffffffffff021916908373ffffffffffffffffffffffffffffffffffffffff160217905550602082015181600101556040820151816002015560608201518160030160006101000a81548173ffffffffffffffffffffffffffffffffffffffff021916908373ffffffffffffffffffffffffffffffffffffffff1602179055506080820151816004015560a08201518160050160006101000a81548173ffffffffffffffffffffffffffffffffffffffff021916908373ffffffffffffffffffffffffffffffffffffffff16021790555060c0820151816006015560e082015181600701556101008201518160080160006101000a81548160ff0219169083151502179055506101208201518160080160016101000a81548160ff021916908315150217905550610140820151816009015550503373ffffffffffffffffffffffffffffffffffffffff167fe40f06fa0a6746671dc112db73d78fe9a048ee3a08d3ce6a8abb3bc5db4a63538261014001518787878760405161089c959493929190612c1d565b60405180910390a25050505050565b606e81565b6108b8612078565b6108c260006120f6565b565b6108cc6121c2565b600282815481106108e0576108df612c70565b5b90600052602060002090600a0201604051806101600160405290816000820160009054906101000a900473ffffffffffffffffffffffffffffffffffffffff1673ffffffffffffffffffffffffffffffffffffffff1673ffffffffffffffffffffffffffffffffffffffff16815260200160018201548152602001600282015481526020016003820160009054906101000a900473ffffffffffffffffffffffffffffffffffffffff1673ffffffffffffffffffffffffffffffffffffffff1673ffffffffffffffffffffffffffffffffffffffff168152602001600482015481526020016005820160009054906101000a900473ffffffffffffffffffffffffffffffffffffffff1673ffffffffffffffffffffffffffffffffffffffff1673ffffffffffffffffffffffffffffffffffffffff16815260200160068201548152602001600782015481526020016008820160009054906101000a900460ff161515151581526020016008820160019054906101000a900460ff161515151581526020016009820154815250509050919050565b60008060009054906101000a900473ffffffffffffffffffffffffffffffffffffffff16905090565b8060028181548110610ab357610ab2612c70565b5b90600052602060002090600a020160000160009054906101000a900473ffffffffffffffffffffffffffffffffffffffff1673ffffffffffffffffffffffffffffffffffffffff163373ffffffffffffffffffffffffffffffffffffffff161480610b505750610b21610a75565b73ffffffffffffffffffffffffffffffffffffffff163373ffffffffffffffffffffffffffffffffffffffff16145b610b8f576040517f08c379a0000000000000000000000000000000000000000000000000000000008152600401610b8690612d11565b60405180910390fd5b6000151560028381548110610ba757610ba6612c70565b5b90600052602060002090600a020160080160009054906101000a900460ff16151514610c08576040517f08c379a0000000000000000000000000000000000000000000000000000000008152600401610bff90612d7d565b60405180910390fd5b60028281548110610c1c57610c1b612c70565b5b90600052602060002090600a020160080160019054906101000a900460ff16610c7a576040517f08c379a0000000000000000000000000000000000000000000000000000000008152600401610c7190612de9565b60405180910390fd5b600160009054906101000a900473ffffffffffffffffffffffffffffffffffffffff1673ffffffffffffffffffffffffffffffffffffffff166342842e0e3060028581548110610ccd57610ccc612c70565b5b90600052602060002090600a020160000160009054906101000a900473ffffffffffffffffffffffffffffffffffffffff1660028681548110610d1357610d12612c70565b5b90600052602060002090600a0201600101546040518463ffffffff1660e01b8152600401610d4393929190612be6565b600060405180830381600087803b158015610d5d57600080fd5b505af1158015610d71573d6000803e3d6000fd5b50505050600073ffffffffffffffffffffffffffffffffffffffff1660028381548110610da157610da0612c70565b5b90600052602060002090600a020160050160009054906101000a900473ffffffffffffffffffffffffffffffffffffffff1673ffffffffffffffffffffffffffffffffffffffff1614610ea05760028281548110610e0257610e01612c70565b5b90600052602060002090600a020160050160009054906101000a900473ffffffffffffffffffffffffffffffffffffffff1673ffffffffffffffffffffffffffffffffffffffff166108fc60028481548110610e6157610e60612c70565b5b90600052602060002090600a0201600401549081150290604051600060405180830381858888f19350505050158015610e9e573d6000803e3d6000fd5b505b600160028381548110610eb657610eb5612c70565b5b90600052602060002090600a020160080160006101000a81548160ff021916908315150217905550600060028381548110610ef457610ef3612c70565b5b90600052602060002090600a020160080160016101000a81548160ff02191690831515021790555060028281548110610f3057610f2f612c70565b5b90600052602060002090600a020160050160009054906101000a900473ffffffffffffffffffffffffffffffffffffffff1673ffffffffffffffffffffffffffffffffffffffff1660028381548110610f8c57610f8b612c70565b5b90600052602060002090600a020160000160009054906101000a900473ffffffffffffffffffffffffffffffffffffffff1673ffffffffffffffffffffffffffffffffffffffff163373ffffffffffffffffffffffffffffffffffffffff167f7a99de43ac96f0e4a85857dffb754b19b2b2466e3b10dbfb41f2478d6521eb99856002878154811061102157611020612c70565b5b90600052602060002090600a020160010154604051611041929190612e09565b60405180910390a45050565b600381565b60606000805b6002805490508110156110be578315156002828154811061107c5761107b612c70565b5b90600052602060002090600a020160080160019054906101000a900460ff161515036110b15781806110ad90612e61565b9250505b8080600101915050611058565b5060008167ffffffffffffffff8111156110db576110da612ea9565b5b60405190808252806020026020018201604052801561111457816020015b6111016121c2565b8152602001906001900390816110f95790505b5090506000805b600280549050811015611341578515156002828154811061113f5761113e612c70565b5b90600052602060002090600a020160080160019054906101000a900460ff16151503611334576002818154811061117957611178612c70565b5b90600052602060002090600a0201604051806101600160405290816000820160009054906101000a900473ffffffffffffffffffffffffffffffffffffffff1673ffffffffffffffffffffffffffffffffffffffff1673ffffffffffffffffffffffffffffffffffffffff16815260200160018201548152602001600282015481526020016003820160009054906101000a900473ffffffffffffffffffffffffffffffffffffffff1673ffffffffffffffffffffffffffffffffffffffff1673ffffffffffffffffffffffffffffffffffffffff168152602001600482015481526020016005820160009054906101000a900473ffffffffffffffffffffffffffffffffffffffff1673ffffffffffffffffffffffffffffffffffffffff1673ffffffffffffffffffffffffffffffffffffffff16815260200160068201548152602001600782015481526020016008820160009054906101000a900460ff161515151581526020016008820160019054906101000a900460ff1615151515815260200160098201548152505083838151811061131a57611319612c70565b5b6020026020010181905250818061133090612e61565b9250505b808060010191505061111b565b50819350505050919050565b806002818154811061136257611361612c70565b5b90600052602060002090600a020160000160009054906101000a900473ffffffffffffffffffffffffffffffffffffffff1673ffffffffffffffffffffffffffffffffffffffff163373ffffffffffffffffffffffffffffffffffffffff1614806113ff57506113d0610a75565b73ffffffffffffffffffffffffffffffffffffffff163373ffffffffffffffffffffffffffffffffffffffff16145b61143e576040517f08c379a000000000000000000000000000000000000000000000000000000000815260040161143590612d11565b60405180910390fd5b600015156002838154811061145657611455612c70565b5b90600052602060002090600a020160080160009054906101000a900460ff161515146114b7576040517f08c379a00000000000000000000000000000000000000000000000000000000081526004016114ae90612d7d565b60405180910390fd5b600282815481106114cb576114ca612c70565b5b90600052602060002090600a020160080160019054906101000a900460ff16611529576040517f08c379a000000000000000000000000000000000000000000000000000000000815260040161152090612de9565b60405180910390fd5b600073ffffffffffffffffffffffffffffffffffffffff166002838154811061155557611554612c70565b5b90600052602060002090600a020160050160009054906101000a900473ffffffffffffffffffffffffffffffffffffffff1673ffffffffffffffffffffffffffffffffffffffff16036115dd576040517f08c379a00000000000000000000000000000000000000000000000000000000081526004016115d490612f4a565b60405180910390fd5b600282815481106115f1576115f0612c70565b5b90600052602060002090600a020160070154421015611645576040517f08c379a000000000000000000000000000000000000000000000000000000000815260040161163c90612fb6565b60405180910390fd5b600160009054906101000a900473ffffffffffffffffffffffffffffffffffffffff1673ffffffffffffffffffffffffffffffffffffffff166342842e0e306002858154811061169857611697612c70565b5b90600052602060002090600a020160050160009054906101000a900473ffffffffffffffffffffffffffffffffffffffff16600286815481106116de576116dd612c70565b5b90600052602060002090600a0201600101546040518463ffffffff1660e01b815260040161170e93929190612be6565b600060405180830381600087803b15801561172857600080fd5b505af115801561173c573d6000803e3d6000fd5b5050505060006002838154811061175657611755612c70565b5b90600052602060002090600a02016004015490506000600284815481106117805761177f612c70565b5b90600052602060002090600a020160020154600285815481106117a6576117a5612c70565b5b90600052602060002090600a0201600401546117c29190612fd6565b9050600060646003836117d5919061300a565b6117df919061307b565b9050600081846117ef9190612fd6565b90506002868154811061180557611804612c70565b5b90600052602060002090600a020160000160009054906101000a900473ffffffffffffffffffffffffffffffffffffffff1673ffffffffffffffffffffffffffffffffffffffff166108fc829081150290604051600060405180830381858888f1935050505015801561187c573d6000803e3d6000fd5b5060016002878154811061189357611892612c70565b5b90600052602060002090600a020160080160006101000a81548160ff0219169083151502179055506000600287815481106118d1576118d0612c70565b5b90600052602060002090600a020160080160016101000a81548160ff0219169083151502179055506002868154811061190d5761190c612c70565b5b90600052602060002090600a020160050160009054906101000a900473ffffffffffffffffffffffffffffffffffffffff1673ffffffffffffffffffffffffffffffffffffffff166002878154811061196957611968612c70565b5b90600052602060002090600a020160000160009054906101000a900473ffffffffffffffffffffffffffffffffffffffff1673ffffffffffffffffffffffffffffffffffffffff163373ffffffffffffffffffffffffffffffffffffffff167f5f28c5b55c548d31275b9e946c3d1fbcdf9afd369baefb11250b8f4f4f5f53b48960028b815481106119fe576119fd612c70565b5b90600052602060002090600a02016001015489604051611a20939291906130ac565b60405180910390a4505050505050565b600060028281548110611a4657611a45612c70565b5b90600052602060002090600a0201604051806101600160405290816000820160009054906101000a900473ffffffffffffffffffffffffffffffffffffffff1673ffffffffffffffffffffffffffffffffffffffff1673ffffffffffffffffffffffffffffffffffffffff16815260200160018201548152602001600282015481526020016003820160009054906101000a900473ffffffffffffffffffffffffffffffffffffffff1673ffffffffffffffffffffffffffffffffffffffff1673ffffffffffffffffffffffffffffffffffffffff168152602001600482015481526020016005820160009054906101000a900473ffffffffffffffffffffffffffffffffffffffff1673ffffffffffffffffffffffffffffffffffffffff1673ffffffffffffffffffffffffffffffffffffffff16815260200160068201548152602001600782015481526020016008820160009054906101000a900460ff161515151581526020016008820160019054906101000a900460ff1615151515815260200160098201548152505090508060c00151421015611c1d576040517f08c379a0000000000000000000000000000000000000000000000000000000008152600401611c149061312f565b60405180910390fd5b60001515816101000151151514611c69576040517f08c379a0000000000000000000000000000000000000000000000000000000008152600401611c6090612d7d565b60405180910390fd5b806101200151611cae576040517f08c379a0000000000000000000000000000000000000000000000000000000008152600401611ca590612de9565b60405180910390fd5b60008073ffffffffffffffffffffffffffffffffffffffff168260a0015173ffffffffffffffffffffffffffffffffffffffff1614611d09576064606e8360800151611cfa919061300a565b611d04919061307b565b611d0f565b81604001515b905034811115611d54576040517f08c379a0000000000000000000000000000000000000000000000000000000008152600401611d4b906131c1565b60405180910390fd5b3373ffffffffffffffffffffffffffffffffffffffff16826000015173ffffffffffffffffffffffffffffffffffffffff1603611dc6576040517f08c379a0000000000000000000000000000000000000000000000000000000008152600401611dbd9061322d565b60405180910390fd5b600073ffffffffffffffffffffffffffffffffffffffff168260a0015173ffffffffffffffffffffffffffffffffffffffff1614611e4e578160a0015173ffffffffffffffffffffffffffffffffffffffff166108fc83608001519081150290604051600060405180830381858888f19350505050158015611e4c573d6000803e3d6000fd5b505b8160a0015160028481548110611e6757611e66612c70565b5b90600052602060002090600a020160030160006101000a81548173ffffffffffffffffffffffffffffffffffffffff021916908373ffffffffffffffffffffffffffffffffffffffff1602179055503360028481548110611ecb57611eca612c70565b5b90600052602060002090600a020160050160006101000a81548173ffffffffffffffffffffffffffffffffffffffff021916908373ffffffffffffffffffffffffffffffffffffffff1602179055503460028481548110611f2f57611f2e612c70565b5b90600052602060002090600a02016004018190555060028381548110611f5857611f57612c70565b5b90600052602060002090600a020160030160009054906101000a900473ffffffffffffffffffffffffffffffffffffffff1673ffffffffffffffffffffffffffffffffffffffff163373ffffffffffffffffffffffffffffffffffffffff167f973bfc98a37f669dd0550b8a587bbe1591f69a679bb70a917f797e25f16962b28534604051611fe8929190612e09565b60405180910390a3505050565b611ffd612078565b600073ffffffffffffffffffffffffffffffffffffffff168173ffffffffffffffffffffffffffffffffffffffff160361206c576040517f08c379a0000000000000000000000000000000000000000000000000000000008152600401612063906132bf565b60405180910390fd5b612075816120f6565b50565b6120806121ba565b73ffffffffffffffffffffffffffffffffffffffff1661209e610a75565b73ffffffffffffffffffffffffffffffffffffffff16146120f4576040517f08c379a00000000000000000000000000000000000000000000000000000000081526004016120eb9061332b565b60405180910390fd5b565b60008060009054906101000a900473ffffffffffffffffffffffffffffffffffffffff169050816000806101000a81548173ffffffffffffffffffffffffffffffffffffffff021916908373ffffffffffffffffffffffffffffffffffffffff1602179055508173ffffffffffffffffffffffffffffffffffffffff168173ffffffffffffffffffffffffffffffffffffffff167f8be0079c531659141344cd1fd0a4f28419497f9722a3daafe3b4186f6b6457e060405160405180910390a35050565b600033905090565b604051806101600160405280600073ffffffffffffffffffffffffffffffffffffffff1681526020016000815260200160008152602001600073ffffffffffffffffffffffffffffffffffffffff16815260200160008152602001600073ffffffffffffffffffffffffffffffffffffffff1681526020016000815260200160008152602001600015158152602001600015158152602001600081525090565b600080fd5b600080fd5b600073ffffffffffffffffffffffffffffffffffffffff82169050919050565b60006122978261226c565b9050919050565b6122a78161228c565b81146122b257600080fd5b50565b6000813590506122c48161229e565b92915050565b6000819050919050565b6122dd816122ca565b81146122e857600080fd5b50565b6000813590506122fa816122d4565b92915050565b600080fd5b600080fd5b600080fd5b60008083601f84011261232557612324612300565b5b8235905067ffffffffffffffff81111561234257612341612305565b5b60208301915083600182028301111561235e5761235d61230a565b5b9250929050565b60008060008060006080868803121561238157612380612262565b5b600061238f888289016122b5565b95505060206123a0888289016122b5565b94505060406123b1888289016122eb565b935050606086013567ffffffffffffffff8111156123d2576123d1612267565b5b6123de8882890161230f565b92509250509295509295909350565b60007fffffffff0000000000000000000000000000000000000000000000000000000082169050919050565b612422816123ed565b82525050565b600060208201905061243d6000830184612419565b92915050565b6000806000806080858703121561245d5761245c612262565b5b600061246b878288016122eb565b945050602061247c878288016122eb565b935050604061248d878288016122eb565b925050606061249e878288016122eb565b91505092959194509250565b6124b3816122ca565b82525050565b60006020820190506124ce60008301846124aa565b92915050565b6000602082840312156124ea576124e9612262565b5b60006124f8848285016122eb565b91505092915050565b61250a8161228c565b82525050565b612519816122ca565b82525050565b60008115159050919050565b6125348161251f565b82525050565b610160820160008201516125516000850182612501565b5060208201516125646020850182612510565b5060408201516125776040850182612510565b50606082015161258a6060850182612501565b50608082015161259d6080850182612510565b5060a08201516125b060a0850182612501565b5060c08201516125c360c0850182612510565b5060e08201516125d660e0850182612510565b506101008201516125eb61010085018261252b565b5061012082015161260061012085018261252b565b50610140820151612615610140850182612510565b50505050565b600061016082019050612631600083018461253a565b92915050565b6126408161228c565b82525050565b600060208201905061265b6000830184612637565b92915050565b61266a8161251f565b811461267557600080fd5b50565b60008135905061268781612661565b92915050565b6000602082840312156126a3576126a2612262565b5b60006126b184828501612678565b91505092915050565b600081519050919050565b600082825260208201905092915050565b6000819050602082019050919050565b610160820160008201516126fd6000850182612501565b5060208201516127106020850182612510565b5060408201516127236040850182612510565b5060608201516127366060850182612501565b5060808201516127496080850182612510565b5060a082015161275c60a0850182612501565b5060c082015161276f60c0850182612510565b5060e082015161278260e0850182612510565b5061010082015161279761010085018261252b565b506101208201516127ac61012085018261252b565b506101408201516127c1610140850182612510565b50505050565b60006127d383836126e6565b6101608301905092915050565b6000602082019050919050565b60006127f8826126ba565b61280281856126c5565b935061280d836126d6565b8060005b8381101561283e57815161282588826127c7565b9750612830836127e0565b925050600181019050612811565b5085935050505092915050565b6000602082019050818103600083015261286581846127ed565b905092915050565b60006020828403121561288357612882612262565b5b6000612891848285016122b5565b91505092915050565b600082825260208201905092915050565b7f41756374696f6e2063616e206e6f742073746172740000000000000000000000600082015250565b60006128e160158361289a565b91506128ec826128ab565b602082019050919050565b60006020820190508181036000830152612910816128d4565b9050919050565b7f41756374696f6e2063616e206e6f7420656e64206265666f726520697420737460008201527f6172747300000000000000000000000000000000000000000000000000000000602082015250565b600061297360248361289a565b915061297e82612917565b604082019050919050565b600060208201905081810360008301526129a281612966565b9050919050565b7f496e697469616c207072696365206d757374206265206772656174657220746860008201527f616e203000000000000000000000000000000000000000000000000000000000602082015250565b6000612a0560248361289a565b9150612a10826129a9565b604082019050919050565b60006020820190508181036000830152612a34816129f8565b9050919050565b600081519050612a4a8161229e565b92915050565b600060208284031215612a6657612a65612262565b5b6000612a7484828501612a3b565b91505092915050565b7f4d757374207374616b6520796f7572206f776e20746f6b656e00000000000000600082015250565b6000612ab360198361289a565b9150612abe82612a7d565b602082019050919050565b60006020820190508181036000830152612ae281612aa6565b9050919050565b6000604082019050612afe6000830185612637565b612b0b6020830184612637565b9392505050565b600081519050612b2181612661565b92915050565b600060208284031215612b3d57612b3c612262565b5b6000612b4b84828501612b12565b91505092915050565b7f4d61726b6574706c616365206973206e6f7420617070726f76656420746f207460008201527f72616e736665722074686973204e465400000000000000000000000000000000602082015250565b6000612bb060308361289a565b9150612bbb82612b54565b604082019050919050565b60006020820190508181036000830152612bdf81612ba3565b9050919050565b6000606082019050612bfb6000830186612637565b612c086020830185612637565b612c1560408301846124aa565b949350505050565b600060a082019050612c3260008301886124aa565b612c3f60208301876124aa565b612c4c60408301866124aa565b612c5960608301856124aa565b612c6660808301846124aa565b9695505050505050565b7f4e487b7100000000000000000000000000000000000000000000000000000000600052603260045260246000fd5b7f4f6e6c792061756374696f6e656572206f72206f776e65722063616e2070657260008201527f666f726d207468697320616374696f6e00000000000000000000000000000000602082015250565b6000612cfb60308361289a565b9150612d0682612c9f565b604082019050919050565b60006020820190508181036000830152612d2a81612cee565b9050919050565b7f41756374696f6e20697320616c726561647920636f6d706c6574656400000000600082015250565b6000612d67601c8361289a565b9150612d7282612d31565b602082019050919050565b60006020820190508181036000830152612d9681612d5a565b9050919050565b7f41756374696f6e206973206e6f74206163746976650000000000000000000000600082015250565b6000612dd360158361289a565b9150612dde82612d9d565b602082019050919050565b60006020820190508181036000830152612e0281612dc6565b9050919050565b6000604082019050612e1e60008301856124aa565b612e2b60208301846124aa565b9392505050565b7f4e487b7100000000000000000000000000000000000000000000000000000000600052601160045260246000fd5b6000612e6c826122ca565b91507fffffffffffffffffffffffffffffffffffffffffffffffffffffffffffffffff8203612e9e57612e9d612e32565b5b600182019050919050565b7f4e487b7100000000000000000000000000000000000000000000000000000000600052604160045260246000fd5b7f4e6f20626964732077657265206d61646520696e20746869732061756374696f60008201527f6e00000000000000000000000000000000000000000000000000000000000000602082015250565b6000612f3460218361289a565b9150612f3f82612ed8565b604082019050919050565b60006020820190508181036000830152612f6381612f27565b9050919050565b7f41756374696f6e20686173206e6f7420656e6465642079657400000000000000600082015250565b6000612fa060198361289a565b9150612fab82612f6a565b602082019050919050565b60006020820190508181036000830152612fcf81612f93565b9050919050565b6000612fe1826122ca565b9150612fec836122ca565b925082820390508181111561300457613003612e32565b5b92915050565b6000613015826122ca565b9150613020836122ca565b925082820261302e816122ca565b9150828204841483151761304557613044612e32565b5b5092915050565b7f4e487b7100000000000000000000000000000000000000000000000000000000600052601260045260246000fd5b6000613086826122ca565b9150613091836122ca565b9250826130a1576130a061304c565b5b828204905092915050565b60006060820190506130c160008301866124aa565b6130ce60208301856124aa565b6130db60408301846124aa565b949350505050565b7f41756374696f6e20686173206e6f742073746172746564000000000000000000600082015250565b600061311960178361289a565b9150613124826130e3565b602082019050919050565b600060208201905081810360008301526131488161310c565b9050919050565b7f426964207072696365206d7573742062652067726561746572207468616e207460008201527f6865206d696e696d756d20707269636500000000000000000000000000000000602082015250565b60006131ab60308361289a565b91506131b68261314f565b604082019050919050565b600060208201905081810360008301526131da8161319e565b9050919050565b7f43616e206e6f7420626964206f6e20796f7572206f776e2061756374696f6e00600082015250565b6000613217601f8361289a565b9150613222826131e1565b602082019050919050565b600060208201905081810360008301526132468161320a565b9050919050565b7f4f776e61626c653a206e6577206f776e657220697320746865207a65726f206160008201527f6464726573730000000000000000000000000000000000000000000000000000602082015250565b60006132a960268361289a565b91506132b48261324d565b604082019050919050565b600060208201905081810360008301526132d88161329c565b9050919050565b7f4f776e61626c653a2063616c6c6572206973206e6f7420746865206f776e6572600082015250565b600061331560208361289a565b9150613320826132df565b602082019050919050565b6000602082019050818103600083015261334481613308565b905091905056fea2646970667358221220072068166c0290627f541b5bc993c4813ce8d84817fdfc3887a8f2ccef02746464736f6c63430008180033",
          "opcodes": "PUSH1 0x80 PUSH1 0x40 MSTORE CALLVALUE DUP1 ISZERO PUSH3 0x11 JUMPI PUSH1 0x0 DUP1 REVERT JUMPDEST POP PUSH1 0x40 MLOAD PUSH3 0x35AC CODESIZE SUB DUP1 PUSH3 0x35AC DUP4 CODECOPY DUP2 DUP2 ADD PUSH1 0x40 MSTORE DUP2 ADD SWAP1 PUSH3 0x37 SWAP2 SWAP1 PUSH3 0x1E9 JUMP JUMPDEST PUSH3 0x57 PUSH3 0x4B PUSH3 0x9F PUSH1 0x20 SHL PUSH1 0x20 SHR JUMP JUMPDEST PUSH3 0xA7 PUSH1 0x20 SHL PUSH1 0x20 SHR JUMP JUMPDEST DUP1 PUSH1 0x1 PUSH1 0x0 PUSH2 0x100 EXP DUP2 SLOAD DUP2 PUSH20 0xFFFFFFFFFFFFFFFFFFFFFFFFFFFFFFFFFFFFFFFF MUL NOT AND SWAP1 DUP4 PUSH20 0xFFFFFFFFFFFFFFFFFFFFFFFFFFFFFFFFFFFFFFFF AND MUL OR SWAP1 SSTORE POP POP PUSH3 0x21B JUMP JUMPDEST PUSH1 0x0 CALLER SWAP1 POP SWAP1 JUMP JUMPDEST PUSH1 0x0 DUP1 PUSH1 0x0 SWAP1 SLOAD SWAP1 PUSH2 0x100 EXP SWAP1 DIV PUSH20 0xFFFFFFFFFFFFFFFFFFFFFFFFFFFFFFFFFFFFFFFF AND SWAP1 POP DUP2 PUSH1 0x0 DUP1 PUSH2 0x100 EXP DUP2 SLOAD DUP2 PUSH20 0xFFFFFFFFFFFFFFFFFFFFFFFFFFFFFFFFFFFFFFFF MUL NOT AND SWAP1 DUP4 PUSH20 0xFFFFFFFFFFFFFFFFFFFFFFFFFFFFFFFFFFFFFFFF AND MUL OR SWAP1 SSTORE POP DUP2 PUSH20 0xFFFFFFFFFFFFFFFFFFFFFFFFFFFFFFFFFFFFFFFF AND DUP2 PUSH20 0xFFFFFFFFFFFFFFFFFFFFFFFFFFFFFFFFFFFFFFFF AND PUSH32 0x8BE0079C531659141344CD1FD0A4F28419497F9722A3DAAFE3B4186F6B6457E0 PUSH1 0x40 MLOAD PUSH1 0x40 MLOAD DUP1 SWAP2 SUB SWAP1 LOG3 POP POP JUMP JUMPDEST PUSH1 0x0 DUP1 REVERT JUMPDEST PUSH1 0x0 PUSH20 0xFFFFFFFFFFFFFFFFFFFFFFFFFFFFFFFFFFFFFFFF DUP3 AND SWAP1 POP SWAP2 SWAP1 POP JUMP JUMPDEST PUSH1 0x0 PUSH3 0x19D DUP3 PUSH3 0x170 JUMP JUMPDEST SWAP1 POP SWAP2 SWAP1 POP JUMP JUMPDEST PUSH1 0x0 PUSH3 0x1B1 DUP3 PUSH3 0x190 JUMP JUMPDEST SWAP1 POP SWAP2 SWAP1 POP JUMP JUMPDEST PUSH3 0x1C3 DUP2 PUSH3 0x1A4 JUMP JUMPDEST DUP2 EQ PUSH3 0x1CF JUMPI PUSH1 0x0 DUP1 REVERT JUMPDEST POP JUMP JUMPDEST PUSH1 0x0 DUP2 MLOAD SWAP1 POP PUSH3 0x1E3 DUP2 PUSH3 0x1B8 JUMP JUMPDEST SWAP3 SWAP2 POP POP JUMP JUMPDEST PUSH1 0x0 PUSH1 0x20 DUP3 DUP5 SUB SLT ISZERO PUSH3 0x202 JUMPI PUSH3 0x201 PUSH3 0x16B JUMP JUMPDEST JUMPDEST PUSH1 0x0 PUSH3 0x212 DUP5 DUP3 DUP6 ADD PUSH3 0x1D2 JUMP JUMPDEST SWAP2 POP POP SWAP3 SWAP2 POP POP JUMP JUMPDEST PUSH2 0x3381 DUP1 PUSH3 0x22B PUSH1 0x0 CODECOPY PUSH1 0x0 RETURN INVALID PUSH1 0x80 PUSH1 0x40 MSTORE PUSH1 0x4 CALLDATASIZE LT PUSH2 0xA7 JUMPI PUSH1 0x0 CALLDATALOAD PUSH1 0xE0 SHR DUP1 PUSH4 0x96B5A755 GT PUSH2 0x64 JUMPI DUP1 PUSH4 0x96B5A755 EQ PUSH2 0x1BC JUMPI DUP1 PUSH4 0xBD0A079D EQ PUSH2 0x1E5 JUMPI DUP1 PUSH4 0xC00A6FB7 EQ PUSH2 0x210 JUMPI DUP1 PUSH4 0xCF266ED0 EQ PUSH2 0x24D JUMPI DUP1 PUSH4 0xF0194F89 EQ PUSH2 0x276 JUMPI DUP1 PUSH4 0xF2FDE38B EQ PUSH2 0x292 JUMPI PUSH2 0xA7 JUMP JUMPDEST DUP1 PUSH4 0x150B7A02 EQ PUSH2 0xAC JUMPI DUP1 PUSH4 0x431F21DA EQ PUSH2 0xE9 JUMPI DUP1 PUSH4 0x6AADFDD0 EQ PUSH2 0x112 JUMPI DUP1 PUSH4 0x715018A6 EQ PUSH2 0x13D JUMPI DUP1 PUSH4 0x78BD7935 EQ PUSH2 0x154 JUMPI DUP1 PUSH4 0x8DA5CB5B EQ PUSH2 0x191 JUMPI JUMPDEST PUSH1 0x0 DUP1 REVERT JUMPDEST CALLVALUE DUP1 ISZERO PUSH2 0xB8 JUMPI PUSH1 0x0 DUP1 REVERT JUMPDEST POP PUSH2 0xD3 PUSH1 0x4 DUP1 CALLDATASIZE SUB DUP2 ADD SWAP1 PUSH2 0xCE SWAP2 SWAP1 PUSH2 0x2365 JUMP JUMPDEST PUSH2 0x2BB JUMP JUMPDEST PUSH1 0x40 MLOAD PUSH2 0xE0 SWAP2 SWAP1 PUSH2 0x2428 JUMP JUMPDEST PUSH1 0x40 MLOAD DUP1 SWAP2 SUB SWAP1 RETURN JUMPDEST CALLVALUE DUP1 ISZERO PUSH2 0xF5 JUMPI PUSH1 0x0 DUP1 REVERT JUMPDEST POP PUSH2 0x110 PUSH1 0x4 DUP1 CALLDATASIZE SUB DUP2 ADD SWAP1 PUSH2 0x10B SWAP2 SWAP1 PUSH2 0x2443 JUMP JUMPDEST PUSH2 0x2E9 JUMP JUMPDEST STOP JUMPDEST CALLVALUE DUP1 ISZERO PUSH2 0x11E JUMPI PUSH1 0x0 DUP1 REVERT JUMPDEST POP PUSH2 0x127 PUSH2 0x8AB JUMP JUMPDEST PUSH1 0x40 MLOAD PUSH2 0x134 SWAP2 SWAP1 PUSH2 0x24B9 JUMP JUMPDEST PUSH1 0x40 MLOAD DUP1 SWAP2 SUB SWAP1 RETURN JUMPDEST CALLVALUE DUP1 ISZERO PUSH2 0x149 JUMPI PUSH1 0x0 DUP1 REVERT JUMPDEST POP PUSH2 0x152 PUSH2 0x8B0 JUMP JUMPDEST STOP JUMPDEST CALLVALUE DUP1 ISZERO PUSH2 0x160 JUMPI PUSH1 0x0 DUP1 REVERT JUMPDEST POP PUSH2 0x17B PUSH1 0x4 DUP1 CALLDATASIZE SUB DUP2 ADD SWAP1 PUSH2 0x176 SWAP2 SWAP1 PUSH2 0x24D4 JUMP JUMPDEST PUSH2 0x8C4 JUMP JUMPDEST PUSH1 0x40 MLOAD PUSH2 0x188 SWAP2 SWAP1 PUSH2 0x261B JUMP JUMPDEST PUSH1 0x40 MLOAD DUP1 SWAP2 SUB SWAP1 RETURN JUMPDEST CALLVALUE DUP1 ISZERO PUSH2 0x19D JUMPI PUSH1 0x0 DUP1 REVERT JUMPDEST POP PUSH2 0x1A6 PUSH2 0xA75 JUMP JUMPDEST PUSH1 0x40 MLOAD PUSH2 0x1B3 SWAP2 SWAP1 PUSH2 0x2646 JUMP JUMPDEST PUSH1 0x40 MLOAD DUP1 SWAP2 SUB SWAP1 RETURN JUMPDEST CALLVALUE DUP1 ISZERO PUSH2 0x1C8 JUMPI PUSH1 0x0 DUP1 REVERT JUMPDEST POP PUSH2 0x1E3 PUSH1 0x4 DUP1 CALLDATASIZE SUB DUP2 ADD SWAP1 PUSH2 0x1DE SWAP2 SWAP1 PUSH2 0x24D4 JUMP JUMPDEST PUSH2 0xA9E JUMP JUMPDEST STOP JUMPDEST CALLVALUE DUP1 ISZERO PUSH2 0x1F1 JUMPI PUSH1 0x0 DUP1 REVERT JUMPDEST POP PUSH2 0x1FA PUSH2 0x104D JUMP JUMPDEST PUSH1 0x40 MLOAD PUSH2 0x207 SWAP2 SWAP1 PUSH2 0x24B9 JUMP JUMPDEST PUSH1 0x40 MLOAD DUP1 SWAP2 SUB SWAP1 RETURN JUMPDEST CALLVALUE DUP1 ISZERO PUSH2 0x21C JUMPI PUSH1 0x0 DUP1 REVERT JUMPDEST POP PUSH2 0x237 PUSH1 0x4 DUP1 CALLDATASIZE SUB DUP2 ADD SWAP1 PUSH2 0x232 SWAP2 SWAP1 PUSH2 0x268D JUMP JUMPDEST PUSH2 0x1052 JUMP JUMPDEST PUSH1 0x40 MLOAD PUSH2 0x244 SWAP2 SWAP1 PUSH2 0x284B JUMP JUMPDEST PUSH1 0x40 MLOAD DUP1 SWAP2 SUB SWAP1 RETURN JUMPDEST CALLVALUE DUP1 ISZERO PUSH2 0x259 JUMPI PUSH1 0x0 DUP1 REVERT JUMPDEST POP PUSH2 0x274 PUSH1 0x4 DUP1 CALLDATASIZE SUB DUP2 ADD SWAP1 PUSH2 0x26F SWAP2 SWAP1 PUSH2 0x24D4 JUMP JUMPDEST PUSH2 0x134D JUMP JUMPDEST STOP JUMPDEST PUSH2 0x290 PUSH1 0x4 DUP1 CALLDATASIZE SUB DUP2 ADD SWAP1 PUSH2 0x28B SWAP2 SWAP1 PUSH2 0x24D4 JUMP JUMPDEST PUSH2 0x1A30 JUMP JUMPDEST STOP JUMPDEST CALLVALUE DUP1 ISZERO PUSH2 0x29E JUMPI PUSH1 0x0 DUP1 REVERT JUMPDEST POP PUSH2 0x2B9 PUSH1 0x4 DUP1 CALLDATASIZE SUB DUP2 ADD SWAP1 PUSH2 0x2B4 SWAP2 SWAP1 PUSH2 0x286D JUMP JUMPDEST PUSH2 0x1FF5 JUMP JUMPDEST STOP JUMPDEST PUSH1 0x0 PUSH32 0x150B7A023D4804D13E8C85FB27262CB750CF6BA9F9DD3BB30D90F482CEEB4B1F SWAP1 POP SWAP6 SWAP5 POP POP POP POP POP JUMP JUMPDEST DUP2 TIMESTAMP GT ISZERO PUSH2 0x32C JUMPI PUSH1 0x40 MLOAD PUSH32 0x8C379A000000000000000000000000000000000000000000000000000000000 DUP2 MSTORE PUSH1 0x4 ADD PUSH2 0x323 SWAP1 PUSH2 0x28F7 JUMP JUMPDEST PUSH1 0x40 MLOAD DUP1 SWAP2 SUB SWAP1 REVERT JUMPDEST DUP1 DUP3 LT PUSH2 0x36E JUMPI PUSH1 0x40 MLOAD PUSH32 0x8C379A000000000000000000000000000000000000000000000000000000000 DUP2 MSTORE PUSH1 0x4 ADD PUSH2 0x365 SWAP1 PUSH2 0x2989 JUMP JUMPDEST PUSH1 0x40 MLOAD DUP1 SWAP2 SUB SWAP1 REVERT JUMPDEST DUP3 PUSH1 0x0 LT PUSH2 0x3B1 JUMPI PUSH1 0x40 MLOAD PUSH32 0x8C379A000000000000000000000000000000000000000000000000000000000 DUP2 MSTORE PUSH1 0x4 ADD PUSH2 0x3A8 SWAP1 PUSH2 0x2A1B JUMP JUMPDEST PUSH1 0x40 MLOAD DUP1 SWAP2 SUB SWAP1 REVERT JUMPDEST CALLER PUSH20 0xFFFFFFFFFFFFFFFFFFFFFFFFFFFFFFFFFFFFFFFF AND PUSH1 0x1 PUSH1 0x0 SWAP1 SLOAD SWAP1 PUSH2 0x100 EXP SWAP1 DIV PUSH20 0xFFFFFFFFFFFFFFFFFFFFFFFFFFFFFFFFFFFFFFFF AND PUSH20 0xFFFFFFFFFFFFFFFFFFFFFFFFFFFFFFFFFFFFFFFF AND PUSH4 0x6352211E DUP7 PUSH1 0x40 MLOAD DUP3 PUSH4 0xFFFFFFFF AND PUSH1 0xE0 SHL DUP2 MSTORE PUSH1 0x4 ADD PUSH2 0x423 SWAP2 SWAP1 PUSH2 0x24B9 JUMP JUMPDEST PUSH1 0x20 PUSH1 0x40 MLOAD DUP1 DUP4 SUB DUP2 DUP7 GAS STATICCALL ISZERO DUP1 ISZERO PUSH2 0x440 JUMPI RETURNDATASIZE PUSH1 0x0 DUP1 RETURNDATACOPY RETURNDATASIZE PUSH1 0x0 REVERT JUMPDEST POP POP POP POP PUSH1 0x40 MLOAD RETURNDATASIZE PUSH1 0x1F NOT PUSH1 0x1F DUP3 ADD AND DUP3 ADD DUP1 PUSH1 0x40 MSTORE POP DUP2 ADD SWAP1 PUSH2 0x464 SWAP2 SWAP1 PUSH2 0x2A50 JUMP JUMPDEST PUSH20 0xFFFFFFFFFFFFFFFFFFFFFFFFFFFFFFFFFFFFFFFF AND EQ PUSH2 0x4BA JUMPI PUSH1 0x40 MLOAD PUSH32 0x8C379A000000000000000000000000000000000000000000000000000000000 DUP2 MSTORE PUSH1 0x4 ADD PUSH2 0x4B1 SWAP1 PUSH2 0x2AC9 JUMP JUMPDEST PUSH1 0x40 MLOAD DUP1 SWAP2 SUB SWAP1 REVERT JUMPDEST PUSH1 0x1 PUSH1 0x0 SWAP1 SLOAD SWAP1 PUSH2 0x100 EXP SWAP1 DIV PUSH20 0xFFFFFFFFFFFFFFFFFFFFFFFFFFFFFFFFFFFFFFFF AND PUSH20 0xFFFFFFFFFFFFFFFFFFFFFFFFFFFFFFFFFFFFFFFF AND PUSH4 0xE985E9C5 CALLER ADDRESS PUSH1 0x40 MLOAD DUP4 PUSH4 0xFFFFFFFF AND PUSH1 0xE0 SHL DUP2 MSTORE PUSH1 0x4 ADD PUSH2 0x517 SWAP3 SWAP2 SWAP1 PUSH2 0x2AE9 JUMP JUMPDEST PUSH1 0x20 PUSH1 0x40 MLOAD DUP1 DUP4 SUB DUP2 DUP7 GAS STATICCALL ISZERO DUP1 ISZERO PUSH2 0x534 JUMPI RETURNDATASIZE PUSH1 0x0 DUP1 RETURNDATACOPY RETURNDATASIZE PUSH1 0x0 REVERT JUMPDEST POP POP POP POP PUSH1 0x40 MLOAD RETURNDATASIZE PUSH1 0x1F NOT PUSH1 0x1F DUP3 ADD AND DUP3 ADD DUP1 PUSH1 0x40 MSTORE POP DUP2 ADD SWAP1 PUSH2 0x558 SWAP2 SWAP1 PUSH2 0x2B27 JUMP JUMPDEST PUSH2 0x597 JUMPI PUSH1 0x40 MLOAD PUSH32 0x8C379A000000000000000000000000000000000000000000000000000000000 DUP2 MSTORE PUSH1 0x4 ADD PUSH2 0x58E SWAP1 PUSH2 0x2BC6 JUMP JUMPDEST PUSH1 0x40 MLOAD DUP1 SWAP2 SUB SWAP1 REVERT JUMPDEST PUSH1 0x1 PUSH1 0x0 SWAP1 SLOAD SWAP1 PUSH2 0x100 EXP SWAP1 DIV PUSH20 0xFFFFFFFFFFFFFFFFFFFFFFFFFFFFFFFFFFFFFFFF AND PUSH20 0xFFFFFFFFFFFFFFFFFFFFFFFFFFFFFFFFFFFFFFFF AND PUSH4 0x42842E0E CALLER ADDRESS DUP8 PUSH1 0x40 MLOAD DUP5 PUSH4 0xFFFFFFFF AND PUSH1 0xE0 SHL DUP2 MSTORE PUSH1 0x4 ADD PUSH2 0x5F6 SWAP4 SWAP3 SWAP2 SWAP1 PUSH2 0x2BE6 JUMP JUMPDEST PUSH1 0x0 PUSH1 0x40 MLOAD DUP1 DUP4 SUB DUP2 PUSH1 0x0 DUP8 DUP1 EXTCODESIZE ISZERO DUP1 ISZERO PUSH2 0x610 JUMPI PUSH1 0x0 DUP1 REVERT JUMPDEST POP GAS CALL ISZERO DUP1 ISZERO PUSH2 0x624 JUMPI RETURNDATASIZE PUSH1 0x0 DUP1 RETURNDATACOPY RETURNDATASIZE PUSH1 0x0 REVERT JUMPDEST POP POP POP POP PUSH1 0x0 PUSH1 0x40 MLOAD DUP1 PUSH2 0x160 ADD PUSH1 0x40 MSTORE DUP1 CALLER PUSH20 0xFFFFFFFFFFFFFFFFFFFFFFFFFFFFFFFFFFFFFFFF AND DUP2 MSTORE PUSH1 0x20 ADD DUP7 DUP2 MSTORE PUSH1 0x20 ADD DUP6 DUP2 MSTORE PUSH1 0x20 ADD PUSH1 0x0 PUSH20 0xFFFFFFFFFFFFFFFFFFFFFFFFFFFFFFFFFFFFFFFF AND DUP2 MSTORE PUSH1 0x20 ADD DUP6 DUP2 MSTORE PUSH1 0x20 ADD PUSH1 0x0 PUSH20 0xFFFFFFFFFFFFFFFFFFFFFFFFFFFFFFFFFFFFFFFF AND DUP2 MSTORE PUSH1 0x20 ADD DUP5 DUP2 MSTORE PUSH1 0x20 ADD DUP4 DUP2 MSTORE PUSH1 0x20 ADD PUSH1 0x0 ISZERO ISZERO DUP2 MSTORE PUSH1 0x20 ADD PUSH1 0x1 ISZERO ISZERO DUP2 MSTORE PUSH1 0x20 ADD PUSH1 0x2 DUP1 SLOAD SWAP1 POP DUP2 MSTORE POP SWAP1 POP PUSH1 0x2 DUP2 SWAP1 DUP1 PUSH1 0x1 DUP2 SLOAD ADD DUP1 DUP3 SSTORE DUP1 SWAP2 POP POP PUSH1 0x1 SWAP1 SUB SWAP1 PUSH1 0x0 MSTORE PUSH1 0x20 PUSH1 0x0 KECCAK256 SWAP1 PUSH1 0xA MUL ADD PUSH1 0x0 SWAP1 SWAP2 SWAP1 SWAP2 SWAP1 SWAP2 POP PUSH1 0x0 DUP3 ADD MLOAD DUP2 PUSH1 0x0 ADD PUSH1 0x0 PUSH2 0x100 EXP DUP2 SLOAD DUP2 PUSH20 0xFFFFFFFFFFFFFFFFFFFFFFFFFFFFFFFFFFFFFFFF MUL NOT AND SWAP1 DUP4 PUSH20 0xFFFFFFFFFFFFFFFFFFFFFFFFFFFFFFFFFFFFFFFF AND MUL OR SWAP1 SSTORE POP PUSH1 0x20 DUP3 ADD MLOAD DUP2 PUSH1 0x1 ADD SSTORE PUSH1 0x40 DUP3 ADD MLOAD DUP2 PUSH1 0x2 ADD SSTORE PUSH1 0x60 DUP3 ADD MLOAD DUP2 PUSH1 0x3 ADD PUSH1 0x0 PUSH2 0x100 EXP DUP2 SLOAD DUP2 PUSH20 0xFFFFFFFFFFFFFFFFFFFFFFFFFFFFFFFFFFFFFFFF MUL NOT AND SWAP1 DUP4 PUSH20 0xFFFFFFFFFFFFFFFFFFFFFFFFFFFFFFFFFFFFFFFF AND MUL OR SWAP1 SSTORE POP PUSH1 0x80 DUP3 ADD MLOAD DUP2 PUSH1 0x4 ADD SSTORE PUSH1 0xA0 DUP3 ADD MLOAD DUP2 PUSH1 0x5 ADD PUSH1 0x0 PUSH2 0x100 EXP DUP2 SLOAD DUP2 PUSH20 0xFFFFFFFFFFFFFFFFFFFFFFFFFFFFFFFFFFFFFFFF MUL NOT AND SWAP1 DUP4 PUSH20 0xFFFFFFFFFFFFFFFFFFFFFFFFFFFFFFFFFFFFFFFF AND MUL OR SWAP1 SSTORE POP PUSH1 0xC0 DUP3 ADD MLOAD DUP2 PUSH1 0x6 ADD SSTORE PUSH1 0xE0 DUP3 ADD MLOAD DUP2 PUSH1 0x7 ADD SSTORE PUSH2 0x100 DUP3 ADD MLOAD DUP2 PUSH1 0x8 ADD PUSH1 0x0 PUSH2 0x100 EXP DUP2 SLOAD DUP2 PUSH1 0xFF MUL NOT AND SWAP1 DUP4 ISZERO ISZERO MUL OR SWAP1 SSTORE POP PUSH2 0x120 DUP3 ADD MLOAD DUP2 PUSH1 0x8 ADD PUSH1 0x1 PUSH2 0x100 EXP DUP2 SLOAD DUP2 PUSH1 0xFF MUL NOT AND SWAP1 DUP4 ISZERO ISZERO MUL OR SWAP1 SSTORE POP PUSH2 0x140 DUP3 ADD MLOAD DUP2 PUSH1 0x9 ADD SSTORE POP POP CALLER PUSH20 0xFFFFFFFFFFFFFFFFFFFFFFFFFFFFFFFFFFFFFFFF AND PUSH32 0xE40F06FA0A6746671DC112DB73D78FE9A048EE3A08D3CE6A8ABB3BC5DB4A6353 DUP3 PUSH2 0x140 ADD MLOAD DUP8 DUP8 DUP8 DUP8 PUSH1 0x40 MLOAD PUSH2 0x89C SWAP6 SWAP5 SWAP4 SWAP3 SWAP2 SWAP1 PUSH2 0x2C1D JUMP JUMPDEST PUSH1 0x40 MLOAD DUP1 SWAP2 SUB SWAP1 LOG2 POP POP POP POP POP JUMP JUMPDEST PUSH1 0x6E DUP2 JUMP JUMPDEST PUSH2 0x8B8 PUSH2 0x2078 JUMP JUMPDEST PUSH2 0x8C2 PUSH1 0x0 PUSH2 0x20F6 JUMP JUMPDEST JUMP JUMPDEST PUSH2 0x8CC PUSH2 0x21C2 JUMP JUMPDEST PUSH1 0x2 DUP3 DUP2 SLOAD DUP2 LT PUSH2 0x8E0 JUMPI PUSH2 0x8DF PUSH2 0x2C70 JUMP JUMPDEST JUMPDEST SWAP1 PUSH1 0x0 MSTORE PUSH1 0x20 PUSH1 0x0 KECCAK256 SWAP1 PUSH1 0xA MUL ADD PUSH1 0x40 MLOAD DUP1 PUSH2 0x160 ADD PUSH1 0x40 MSTORE SWAP1 DUP2 PUSH1 0x0 DUP3 ADD PUSH1 0x0 SWAP1 SLOAD SWAP1 PUSH2 0x100 EXP SWAP1 DIV PUSH20 0xFFFFFFFFFFFFFFFFFFFFFFFFFFFFFFFFFFFFFFFF AND PUSH20 0xFFFFFFFFFFFFFFFFFFFFFFFFFFFFFFFFFFFFFFFF AND PUSH20 0xFFFFFFFFFFFFFFFFFFFFFFFFFFFFFFFFFFFFFFFF AND DUP2 MSTORE PUSH1 0x20 ADD PUSH1 0x1 DUP3 ADD SLOAD DUP2 MSTORE PUSH1 0x20 ADD PUSH1 0x2 DUP3 ADD SLOAD DUP2 MSTORE PUSH1 0x20 ADD PUSH1 0x3 DUP3 ADD PUSH1 0x0 SWAP1 SLOAD SWAP1 PUSH2 0x100 EXP SWAP1 DIV PUSH20 0xFFFFFFFFFFFFFFFFFFFFFFFFFFFFFFFFFFFFFFFF AND PUSH20 0xFFFFFFFFFFFFFFFFFFFFFFFFFFFFFFFFFFFFFFFF AND PUSH20 0xFFFFFFFFFFFFFFFFFFFFFFFFFFFFFFFFFFFFFFFF AND DUP2 MSTORE PUSH1 0x20 ADD PUSH1 0x4 DUP3 ADD SLOAD DUP2 MSTORE PUSH1 0x20 ADD PUSH1 0x5 DUP3 ADD PUSH1 0x0 SWAP1 SLOAD SWAP1 PUSH2 0x100 EXP SWAP1 DIV PUSH20 0xFFFFFFFFFFFFFFFFFFFFFFFFFFFFFFFFFFFFFFFF AND PUSH20 0xFFFFFFFFFFFFFFFFFFFFFFFFFFFFFFFFFFFFFFFF AND PUSH20 0xFFFFFFFFFFFFFFFFFFFFFFFFFFFFFFFFFFFFFFFF AND DUP2 MSTORE PUSH1 0x20 ADD PUSH1 0x6 DUP3 ADD SLOAD DUP2 MSTORE PUSH1 0x20 ADD PUSH1 0x7 DUP3 ADD SLOAD DUP2 MSTORE PUSH1 0x20 ADD PUSH1 0x8 DUP3 ADD PUSH1 0x0 SWAP1 SLOAD SWAP1 PUSH2 0x100 EXP SWAP1 DIV PUSH1 0xFF AND ISZERO ISZERO ISZERO ISZERO DUP2 MSTORE PUSH1 0x20 ADD PUSH1 0x8 DUP3 ADD PUSH1 0x1 SWAP1 SLOAD SWAP1 PUSH2 0x100 EXP SWAP1 DIV PUSH1 0xFF AND ISZERO ISZERO ISZERO ISZERO DUP2 MSTORE PUSH1 0x20 ADD PUSH1 0x9 DUP3 ADD SLOAD DUP2 MSTORE POP POP SWAP1 POP SWAP2 SWAP1 POP JUMP JUMPDEST PUSH1 0x0 DUP1 PUSH1 0x0 SWAP1 SLOAD SWAP1 PUSH2 0x100 EXP SWAP1 DIV PUSH20 0xFFFFFFFFFFFFFFFFFFFFFFFFFFFFFFFFFFFFFFFF AND SWAP1 POP SWAP1 JUMP JUMPDEST DUP1 PUSH1 0x2 DUP2 DUP2 SLOAD DUP2 LT PUSH2 0xAB3 JUMPI PUSH2 0xAB2 PUSH2 0x2C70 JUMP JUMPDEST JUMPDEST SWAP1 PUSH1 0x0 MSTORE PUSH1 0x20 PUSH1 0x0 KECCAK256 SWAP1 PUSH1 0xA MUL ADD PUSH1 0x0 ADD PUSH1 0x0 SWAP1 SLOAD SWAP1 PUSH2 0x100 EXP SWAP1 DIV PUSH20 0xFFFFFFFFFFFFFFFFFFFFFFFFFFFFFFFFFFFFFFFF AND PUSH20 0xFFFFFFFFFFFFFFFFFFFFFFFFFFFFFFFFFFFFFFFF AND CALLER PUSH20 0xFFFFFFFFFFFFFFFFFFFFFFFFFFFFFFFFFFFFFFFF AND EQ DUP1 PUSH2 0xB50 JUMPI POP PUSH2 0xB21 PUSH2 0xA75 JUMP JUMPDEST PUSH20 0xFFFFFFFFFFFFFFFFFFFFFFFFFFFFFFFFFFFFFFFF AND CALLER PUSH20 0xFFFFFFFFFFFFFFFFFFFFFFFFFFFFFFFFFFFFFFFF AND EQ JUMPDEST PUSH2 0xB8F JUMPI PUSH1 0x40 MLOAD PUSH32 0x8C379A000000000000000000000000000000000000000000000000000000000 DUP2 MSTORE PUSH1 0x4 ADD PUSH2 0xB86 SWAP1 PUSH2 0x2D11 JUMP JUMPDEST PUSH1 0x40 MLOAD DUP1 SWAP2 SUB SWAP1 REVERT JUMPDEST PUSH1 0x0 ISZERO ISZERO PUSH1 0x2 DUP4 DUP2 SLOAD DUP2 LT PUSH2 0xBA7 JUMPI PUSH2 0xBA6 PUSH2 0x2C70 JUMP JUMPDEST JUMPDEST SWAP1 PUSH1 0x0 MSTORE PUSH1 0x20 PUSH1 0x0 KECCAK256 SWAP1 PUSH1 0xA MUL ADD PUSH1 0x8 ADD PUSH1 0x0 SWAP1 SLOAD SWAP1 PUSH2 0x100 EXP SWAP1 DIV PUSH1 0xFF AND ISZERO ISZERO EQ PUSH2 0xC08 JUMPI PUSH1 0x40 MLOAD PUSH32 0x8C379A000000000000000000000000000000000000000000000000000000000 DUP2 MSTORE PUSH1 0x4 ADD PUSH2 0xBFF SWAP1 PUSH2 0x2D7D JUMP JUMPDEST PUSH1 0x40 MLOAD DUP1 SWAP2 SUB SWAP1 REVERT JUMPDEST PUSH1 0x2 DUP3 DUP2 SLOAD DUP2 LT PUSH2 0xC1C JUMPI PUSH2 0xC1B PUSH2 0x2C70 JUMP JUMPDEST JUMPDEST SWAP1 PUSH1 0x0 MSTORE PUSH1 0x20 PUSH1 0x0 KECCAK256 SWAP1 PUSH1 0xA MUL ADD PUSH1 0x8 ADD PUSH1 0x1 SWAP1 SLOAD SWAP1 PUSH2 0x100 EXP SWAP1 DIV PUSH1 0xFF AND PUSH2 0xC7A JUMPI PUSH1 0x40 MLOAD PUSH32 0x8C379A000000000000000000000000000000000000000000000000000000000 DUP2 MSTORE PUSH1 0x4 ADD PUSH2 0xC71 SWAP1 PUSH2 0x2DE9 JUMP JUMPDEST PUSH1 0x40 MLOAD DUP1 SWAP2 SUB SWAP1 REVERT JUMPDEST PUSH1 0x1 PUSH1 0x0 SWAP1 SLOAD SWAP1 PUSH2 0x100 EXP SWAP1 DIV PUSH20 0xFFFFFFFFFFFFFFFFFFFFFFFFFFFFFFFFFFFFFFFF AND PUSH20 0xFFFFFFFFFFFFFFFFFFFFFFFFFFFFFFFFFFFFFFFF AND PUSH4 0x42842E0E ADDRESS PUSH1 0x2 DUP6 DUP2 SLOAD DUP2 LT PUSH2 0xCCD JUMPI PUSH2 0xCCC PUSH2 0x2C70 JUMP JUMPDEST JUMPDEST SWAP1 PUSH1 0x0 MSTORE PUSH1 0x20 PUSH1 0x0 KECCAK256 SWAP1 PUSH1 0xA MUL ADD PUSH1 0x0 ADD PUSH1 0x0 SWAP1 SLOAD SWAP1 PUSH2 0x100 EXP SWAP1 DIV PUSH20 0xFFFFFFFFFFFFFFFFFFFFFFFFFFFFFFFFFFFFFFFF AND PUSH1 0x2 DUP7 DUP2 SLOAD DUP2 LT PUSH2 0xD13 JUMPI PUSH2 0xD12 PUSH2 0x2C70 JUMP JUMPDEST JUMPDEST SWAP1 PUSH1 0x0 MSTORE PUSH1 0x20 PUSH1 0x0 KECCAK256 SWAP1 PUSH1 0xA MUL ADD PUSH1 0x1 ADD SLOAD PUSH1 0x40 MLOAD DUP5 PUSH4 0xFFFFFFFF AND PUSH1 0xE0 SHL DUP2 MSTORE PUSH1 0x4 ADD PUSH2 0xD43 SWAP4 SWAP3 SWAP2 SWAP1 PUSH2 0x2BE6 JUMP JUMPDEST PUSH1 0x0 PUSH1 0x40 MLOAD DUP1 DUP4 SUB DUP2 PUSH1 0x0 DUP8 DUP1 EXTCODESIZE ISZERO DUP1 ISZERO PUSH2 0xD5D JUMPI PUSH1 0x0 DUP1 REVERT JUMPDEST POP GAS CALL ISZERO DUP1 ISZERO PUSH2 0xD71 JUMPI RETURNDATASIZE PUSH1 0x0 DUP1 RETURNDATACOPY RETURNDATASIZE PUSH1 0x0 REVERT JUMPDEST POP POP POP POP PUSH1 0x0 PUSH20 0xFFFFFFFFFFFFFFFFFFFFFFFFFFFFFFFFFFFFFFFF AND PUSH1 0x2 DUP4 DUP2 SLOAD DUP2 LT PUSH2 0xDA1 JUMPI PUSH2 0xDA0 PUSH2 0x2C70 JUMP JUMPDEST JUMPDEST SWAP1 PUSH1 0x0 MSTORE PUSH1 0x20 PUSH1 0x0 KECCAK256 SWAP1 PUSH1 0xA MUL ADD PUSH1 0x5 ADD PUSH1 0x0 SWAP1 SLOAD SWAP1 PUSH2 0x100 EXP SWAP1 DIV PUSH20 0xFFFFFFFFFFFFFFFFFFFFFFFFFFFFFFFFFFFFFFFF AND PUSH20 0xFFFFFFFFFFFFFFFFFFFFFFFFFFFFFFFFFFFFFFFF AND EQ PUSH2 0xEA0 JUMPI PUSH1 0x2 DUP3 DUP2 SLOAD DUP2 LT PUSH2 0xE02 JUMPI PUSH2 0xE01 PUSH2 0x2C70 JUMP JUMPDEST JUMPDEST SWAP1 PUSH1 0x0 MSTORE PUSH1 0x20 PUSH1 0x0 KECCAK256 SWAP1 PUSH1 0xA MUL ADD PUSH1 0x5 ADD PUSH1 0x0 SWAP1 SLOAD SWAP1 PUSH2 0x100 EXP SWAP1 DIV PUSH20 0xFFFFFFFFFFFFFFFFFFFFFFFFFFFFFFFFFFFFFFFF AND PUSH20 0xFFFFFFFFFFFFFFFFFFFFFFFFFFFFFFFFFFFFFFFF AND PUSH2 0x8FC PUSH1 0x2 DUP5 DUP2 SLOAD DUP2 LT PUSH2 0xE61 JUMPI PUSH2 0xE60 PUSH2 0x2C70 JUMP JUMPDEST JUMPDEST SWAP1 PUSH1 0x0 MSTORE PUSH1 0x20 PUSH1 0x0 KECCAK256 SWAP1 PUSH1 0xA MUL ADD PUSH1 0x4 ADD SLOAD SWAP1 DUP2 ISZERO MUL SWAP1 PUSH1 0x40 MLOAD PUSH1 0x0 PUSH1 0x40 MLOAD DUP1 DUP4 SUB DUP2 DUP6 DUP9 DUP9 CALL SWAP4 POP POP POP POP ISZERO DUP1 ISZERO PUSH2 0xE9E JUMPI RETURNDATASIZE PUSH1 0x0 DUP1 RETURNDATACOPY RETURNDATASIZE PUSH1 0x0 REVERT JUMPDEST POP JUMPDEST PUSH1 0x1 PUSH1 0x2 DUP4 DUP2 SLOAD DUP2 LT PUSH2 0xEB6 JUMPI PUSH2 0xEB5 PUSH2 0x2C70 JUMP JUMPDEST JUMPDEST SWAP1 PUSH1 0x0 MSTORE PUSH1 0x20 PUSH1 0x0 KECCAK256 SWAP1 PUSH1 0xA MUL ADD PUSH1 0x8 ADD PUSH1 0x0 PUSH2 0x100 EXP DUP2 SLOAD DUP2 PUSH1 0xFF MUL NOT AND SWAP1 DUP4 ISZERO ISZERO MUL OR SWAP1 SSTORE POP PUSH1 0x0 PUSH1 0x2 DUP4 DUP2 SLOAD DUP2 LT PUSH2 0xEF4 JUMPI PUSH2 0xEF3 PUSH2 0x2C70 JUMP JUMPDEST JUMPDEST SWAP1 PUSH1 0x0 MSTORE PUSH1 0x20 PUSH1 0x0 KECCAK256 SWAP1 PUSH1 0xA MUL ADD PUSH1 0x8 ADD PUSH1 0x1 PUSH2 0x100 EXP DUP2 SLOAD DUP2 PUSH1 0xFF MUL NOT AND SWAP1 DUP4 ISZERO ISZERO MUL OR SWAP1 SSTORE POP PUSH1 0x2 DUP3 DUP2 SLOAD DUP2 LT PUSH2 0xF30 JUMPI PUSH2 0xF2F PUSH2 0x2C70 JUMP JUMPDEST JUMPDEST SWAP1 PUSH1 0x0 MSTORE PUSH1 0x20 PUSH1 0x0 KECCAK256 SWAP1 PUSH1 0xA MUL ADD PUSH1 0x5 ADD PUSH1 0x0 SWAP1 SLOAD SWAP1 PUSH2 0x100 EXP SWAP1 DIV PUSH20 0xFFFFFFFFFFFFFFFFFFFFFFFFFFFFFFFFFFFFFFFF AND PUSH20 0xFFFFFFFFFFFFFFFFFFFFFFFFFFFFFFFFFFFFFFFF AND PUSH1 0x2 DUP4 DUP2 SLOAD DUP2 LT PUSH2 0xF8C JUMPI PUSH2 0xF8B PUSH2 0x2C70 JUMP JUMPDEST JUMPDEST SWAP1 PUSH1 0x0 MSTORE PUSH1 0x20 PUSH1 0x0 KECCAK256 SWAP1 PUSH1 0xA MUL ADD PUSH1 0x0 ADD PUSH1 0x0 SWAP1 SLOAD SWAP1 PUSH2 0x100 EXP SWAP1 DIV PUSH20 0xFFFFFFFFFFFFFFFFFFFFFFFFFFFFFFFFFFFFFFFF AND PUSH20 0xFFFFFFFFFFFFFFFFFFFFFFFFFFFFFFFFFFFFFFFF AND CALLER PUSH20 0xFFFFFFFFFFFFFFFFFFFFFFFFFFFFFFFFFFFFFFFF AND PUSH32 0x7A99DE43AC96F0E4A85857DFFB754B19B2B2466E3B10DBFB41F2478D6521EB99 DUP6 PUSH1 0x2 DUP8 DUP2 SLOAD DUP2 LT PUSH2 0x1021 JUMPI PUSH2 0x1020 PUSH2 0x2C70 JUMP JUMPDEST JUMPDEST SWAP1 PUSH1 0x0 MSTORE PUSH1 0x20 PUSH1 0x0 KECCAK256 SWAP1 PUSH1 0xA MUL ADD PUSH1 0x1 ADD SLOAD PUSH1 0x40 MLOAD PUSH2 0x1041 SWAP3 SWAP2 SWAP1 PUSH2 0x2E09 JUMP JUMPDEST PUSH1 0x40 MLOAD DUP1 SWAP2 SUB SWAP1 LOG4 POP POP JUMP JUMPDEST PUSH1 0x3 DUP2 JUMP JUMPDEST PUSH1 0x60 PUSH1 0x0 DUP1 JUMPDEST PUSH1 0x2 DUP1 SLOAD SWAP1 POP DUP2 LT ISZERO PUSH2 0x10BE JUMPI DUP4 ISZERO ISZERO PUSH1 0x2 DUP3 DUP2 SLOAD DUP2 LT PUSH2 0x107C JUMPI PUSH2 0x107B PUSH2 0x2C70 JUMP JUMPDEST JUMPDEST SWAP1 PUSH1 0x0 MSTORE PUSH1 0x20 PUSH1 0x0 KECCAK256 SWAP1 PUSH1 0xA MUL ADD PUSH1 0x8 ADD PUSH1 0x1 SWAP1 SLOAD SWAP1 PUSH2 0x100 EXP SWAP1 DIV PUSH1 0xFF AND ISZERO ISZERO SUB PUSH2 0x10B1 JUMPI DUP2 DUP1 PUSH2 0x10AD SWAP1 PUSH2 0x2E61 JUMP JUMPDEST SWAP3 POP POP JUMPDEST DUP1 DUP1 PUSH1 0x1 ADD SWAP2 POP POP PUSH2 0x1058 JUMP JUMPDEST POP PUSH1 0x0 DUP2 PUSH8 0xFFFFFFFFFFFFFFFF DUP2 GT ISZERO PUSH2 0x10DB JUMPI PUSH2 0x10DA PUSH2 0x2EA9 JUMP JUMPDEST JUMPDEST PUSH1 0x40 MLOAD SWAP1 DUP1 DUP3 MSTORE DUP1 PUSH1 0x20 MUL PUSH1 0x20 ADD DUP3 ADD PUSH1 0x40 MSTORE DUP1 ISZERO PUSH2 0x1114 JUMPI DUP2 PUSH1 0x20 ADD JUMPDEST PUSH2 0x1101 PUSH2 0x21C2 JUMP JUMPDEST DUP2 MSTORE PUSH1 0x20 ADD SWAP1 PUSH1 0x1 SWAP1 SUB SWAP1 DUP2 PUSH2 0x10F9 JUMPI SWAP1 POP JUMPDEST POP SWAP1 POP PUSH1 0x0 DUP1 JUMPDEST PUSH1 0x2 DUP1 SLOAD SWAP1 POP DUP2 LT ISZERO PUSH2 0x1341 JUMPI DUP6 ISZERO ISZERO PUSH1 0x2 DUP3 DUP2 SLOAD DUP2 LT PUSH2 0x113F JUMPI PUSH2 0x113E PUSH2 0x2C70 JUMP JUMPDEST JUMPDEST SWAP1 PUSH1 0x0 MSTORE PUSH1 0x20 PUSH1 0x0 KECCAK256 SWAP1 PUSH1 0xA MUL ADD PUSH1 0x8 ADD PUSH1 0x1 SWAP1 SLOAD SWAP1 PUSH2 0x100 EXP SWAP1 DIV PUSH1 0xFF AND ISZERO ISZERO SUB PUSH2 0x1334 JUMPI PUSH1 0x2 DUP2 DUP2 SLOAD DUP2 LT PUSH2 0x1179 JUMPI PUSH2 0x1178 PUSH2 0x2C70 JUMP JUMPDEST JUMPDEST SWAP1 PUSH1 0x0 MSTORE PUSH1 0x20 PUSH1 0x0 KECCAK256 SWAP1 PUSH1 0xA MUL ADD PUSH1 0x40 MLOAD DUP1 PUSH2 0x160 ADD PUSH1 0x40 MSTORE SWAP1 DUP2 PUSH1 0x0 DUP3 ADD PUSH1 0x0 SWAP1 SLOAD SWAP1 PUSH2 0x100 EXP SWAP1 DIV PUSH20 0xFFFFFFFFFFFFFFFFFFFFFFFFFFFFFFFFFFFFFFFF AND PUSH20 0xFFFFFFFFFFFFFFFFFFFFFFFFFFFFFFFFFFFFFFFF AND PUSH20 0xFFFFFFFFFFFFFFFFFFFFFFFFFFFFFFFFFFFFFFFF AND DUP2 MSTORE PUSH1 0x20 ADD PUSH1 0x1 DUP3 ADD SLOAD DUP2 MSTORE PUSH1 0x20 ADD PUSH1 0x2 DUP3 ADD SLOAD DUP2 MSTORE PUSH1 0x20 ADD PUSH1 0x3 DUP3 ADD PUSH1 0x0 SWAP1 SLOAD SWAP1 PUSH2 0x100 EXP SWAP1 DIV PUSH20 0xFFFFFFFFFFFFFFFFFFFFFFFFFFFFFFFFFFFFFFFF AND PUSH20 0xFFFFFFFFFFFFFFFFFFFFFFFFFFFFFFFFFFFFFFFF AND PUSH20 0xFFFFFFFFFFFFFFFFFFFFFFFFFFFFFFFFFFFFFFFF AND DUP2 MSTORE PUSH1 0x20 ADD PUSH1 0x4 DUP3 ADD SLOAD DUP2 MSTORE PUSH1 0x20 ADD PUSH1 0x5 DUP3 ADD PUSH1 0x0 SWAP1 SLOAD SWAP1 PUSH2 0x100 EXP SWAP1 DIV PUSH20 0xFFFFFFFFFFFFFFFFFFFFFFFFFFFFFFFFFFFFFFFF AND PUSH20 0xFFFFFFFFFFFFFFFFFFFFFFFFFFFFFFFFFFFFFFFF AND PUSH20 0xFFFFFFFFFFFFFFFFFFFFFFFFFFFFFFFFFFFFFFFF AND DUP2 MSTORE PUSH1 0x20 ADD PUSH1 0x6 DUP3 ADD SLOAD DUP2 MSTORE PUSH1 0x20 ADD PUSH1 0x7 DUP3 ADD SLOAD DUP2 MSTORE PUSH1 0x20 ADD PUSH1 0x8 DUP3 ADD PUSH1 0x0 SWAP1 SLOAD SWAP1 PUSH2 0x100 EXP SWAP1 DIV PUSH1 0xFF AND ISZERO ISZERO ISZERO ISZERO DUP2 MSTORE PUSH1 0x20 ADD PUSH1 0x8 DUP3 ADD PUSH1 0x1 SWAP1 SLOAD SWAP1 PUSH2 0x100 EXP SWAP1 DIV PUSH1 0xFF AND ISZERO ISZERO ISZERO ISZERO DUP2 MSTORE PUSH1 0x20 ADD PUSH1 0x9 DUP3 ADD SLOAD DUP2 MSTORE POP POP DUP4 DUP4 DUP2 MLOAD DUP2 LT PUSH2 0x131A JUMPI PUSH2 0x1319 PUSH2 0x2C70 JUMP JUMPDEST JUMPDEST PUSH1 0x20 MUL PUSH1 0x20 ADD ADD DUP2 SWAP1 MSTORE POP DUP2 DUP1 PUSH2 0x1330 SWAP1 PUSH2 0x2E61 JUMP JUMPDEST SWAP3 POP POP JUMPDEST DUP1 DUP1 PUSH1 0x1 ADD SWAP2 POP POP PUSH2 0x111B JUMP JUMPDEST POP DUP2 SWAP4 POP POP POP POP SWAP2 SWAP1 POP JUMP JUMPDEST DUP1 PUSH1 0x2 DUP2 DUP2 SLOAD DUP2 LT PUSH2 0x1362 JUMPI PUSH2 0x1361 PUSH2 0x2C70 JUMP JUMPDEST JUMPDEST SWAP1 PUSH1 0x0 MSTORE PUSH1 0x20 PUSH1 0x0 KECCAK256 SWAP1 PUSH1 0xA MUL ADD PUSH1 0x0 ADD PUSH1 0x0 SWAP1 SLOAD SWAP1 PUSH2 0x100 EXP SWAP1 DIV PUSH20 0xFFFFFFFFFFFFFFFFFFFFFFFFFFFFFFFFFFFFFFFF AND PUSH20 0xFFFFFFFFFFFFFFFFFFFFFFFFFFFFFFFFFFFFFFFF AND CALLER PUSH20 0xFFFFFFFFFFFFFFFFFFFFFFFFFFFFFFFFFFFFFFFF AND EQ DUP1 PUSH2 0x13FF JUMPI POP PUSH2 0x13D0 PUSH2 0xA75 JUMP JUMPDEST PUSH20 0xFFFFFFFFFFFFFFFFFFFFFFFFFFFFFFFFFFFFFFFF AND CALLER PUSH20 0xFFFFFFFFFFFFFFFFFFFFFFFFFFFFFFFFFFFFFFFF AND EQ JUMPDEST PUSH2 0x143E JUMPI PUSH1 0x40 MLOAD PUSH32 0x8C379A000000000000000000000000000000000000000000000000000000000 DUP2 MSTORE PUSH1 0x4 ADD PUSH2 0x1435 SWAP1 PUSH2 0x2D11 JUMP JUMPDEST PUSH1 0x40 MLOAD DUP1 SWAP2 SUB SWAP1 REVERT JUMPDEST PUSH1 0x0 ISZERO ISZERO PUSH1 0x2 DUP4 DUP2 SLOAD DUP2 LT PUSH2 0x1456 JUMPI PUSH2 0x1455 PUSH2 0x2C70 JUMP JUMPDEST JUMPDEST SWAP1 PUSH1 0x0 MSTORE PUSH1 0x20 PUSH1 0x0 KECCAK256 SWAP1 PUSH1 0xA MUL ADD PUSH1 0x8 ADD PUSH1 0x0 SWAP1 SLOAD SWAP1 PUSH2 0x100 EXP SWAP1 DIV PUSH1 0xFF AND ISZERO ISZERO EQ PUSH2 0x14B7 JUMPI PUSH1 0x40 MLOAD PUSH32 0x8C379A000000000000000000000000000000000000000000000000000000000 DUP2 MSTORE PUSH1 0x4 ADD PUSH2 0x14AE SWAP1 PUSH2 0x2D7D JUMP JUMPDEST PUSH1 0x40 MLOAD DUP1 SWAP2 SUB SWAP1 REVERT JUMPDEST PUSH1 0x2 DUP3 DUP2 SLOAD DUP2 LT PUSH2 0x14CB JUMPI PUSH2 0x14CA PUSH2 0x2C70 JUMP JUMPDEST JUMPDEST SWAP1 PUSH1 0x0 MSTORE PUSH1 0x20 PUSH1 0x0 KECCAK256 SWAP1 PUSH1 0xA MUL ADD PUSH1 0x8 ADD PUSH1 0x1 SWAP1 SLOAD SWAP1 PUSH2 0x100 EXP SWAP1 DIV PUSH1 0xFF AND PUSH2 0x1529 JUMPI PUSH1 0x40 MLOAD PUSH32 0x8C379A000000000000000000000000000000000000000000000000000000000 DUP2 MSTORE PUSH1 0x4 ADD PUSH2 0x1520 SWAP1 PUSH2 0x2DE9 JUMP JUMPDEST PUSH1 0x40 MLOAD DUP1 SWAP2 SUB SWAP1 REVERT JUMPDEST PUSH1 0x0 PUSH20 0xFFFFFFFFFFFFFFFFFFFFFFFFFFFFFFFFFFFFFFFF AND PUSH1 0x2 DUP4 DUP2 SLOAD DUP2 LT PUSH2 0x1555 JUMPI PUSH2 0x1554 PUSH2 0x2C70 JUMP JUMPDEST JUMPDEST SWAP1 PUSH1 0x0 MSTORE PUSH1 0x20 PUSH1 0x0 KECCAK256 SWAP1 PUSH1 0xA MUL ADD PUSH1 0x5 ADD PUSH1 0x0 SWAP1 SLOAD SWAP1 PUSH2 0x100 EXP SWAP1 DIV PUSH20 0xFFFFFFFFFFFFFFFFFFFFFFFFFFFFFFFFFFFFFFFF AND PUSH20 0xFFFFFFFFFFFFFFFFFFFFFFFFFFFFFFFFFFFFFFFF AND SUB PUSH2 0x15DD JUMPI PUSH1 0x40 MLOAD PUSH32 0x8C379A000000000000000000000000000000000000000000000000000000000 DUP2 MSTORE PUSH1 0x4 ADD PUSH2 0x15D4 SWAP1 PUSH2 0x2F4A JUMP JUMPDEST PUSH1 0x40 MLOAD DUP1 SWAP2 SUB SWAP1 REVERT JUMPDEST PUSH1 0x2 DUP3 DUP2 SLOAD DUP2 LT PUSH2 0x15F1 JUMPI PUSH2 0x15F0 PUSH2 0x2C70 JUMP JUMPDEST JUMPDEST SWAP1 PUSH1 0x0 MSTORE PUSH1 0x20 PUSH1 0x0 KECCAK256 SWAP1 PUSH1 0xA MUL ADD PUSH1 0x7 ADD SLOAD TIMESTAMP LT ISZERO PUSH2 0x1645 JUMPI PUSH1 0x40 MLOAD PUSH32 0x8C379A000000000000000000000000000000000000000000000000000000000 DUP2 MSTORE PUSH1 0x4 ADD PUSH2 0x163C SWAP1 PUSH2 0x2FB6 JUMP JUMPDEST PUSH1 0x40 MLOAD DUP1 SWAP2 SUB SWAP1 REVERT JUMPDEST PUSH1 0x1 PUSH1 0x0 SWAP1 SLOAD SWAP1 PUSH2 0x100 EXP SWAP1 DIV PUSH20 0xFFFFFFFFFFFFFFFFFFFFFFFFFFFFFFFFFFFFFFFF AND PUSH20 0xFFFFFFFFFFFFFFFFFFFFFFFFFFFFFFFFFFFFFFFF AND PUSH4 0x42842E0E ADDRESS PUSH1 0x2 DUP6 DUP2 SLOAD DUP2 LT PUSH2 0x1698 JUMPI PUSH2 0x1697 PUSH2 0x2C70 JUMP JUMPDEST JUMPDEST SWAP1 PUSH1 0x0 MSTORE PUSH1 0x20 PUSH1 0x0 KECCAK256 SWAP1 PUSH1 0xA MUL ADD PUSH1 0x5 ADD PUSH1 0x0 SWAP1 SLOAD SWAP1 PUSH2 0x100 EXP SWAP1 DIV PUSH20 0xFFFFFFFFFFFFFFFFFFFFFFFFFFFFFFFFFFFFFFFF AND PUSH1 0x2 DUP7 DUP2 SLOAD DUP2 LT PUSH2 0x16DE JUMPI PUSH2 0x16DD PUSH2 0x2C70 JUMP JUMPDEST JUMPDEST SWAP1 PUSH1 0x0 MSTORE PUSH1 0x20 PUSH1 0x0 KECCAK256 SWAP1 PUSH1 0xA MUL ADD PUSH1 0x1 ADD SLOAD PUSH1 0x40 MLOAD DUP5 PUSH4 0xFFFFFFFF AND PUSH1 0xE0 SHL DUP2 MSTORE PUSH1 0x4 ADD PUSH2 0x170E SWAP4 SWAP3 SWAP2 SWAP1 PUSH2 0x2BE6 JUMP JUMPDEST PUSH1 0x0 PUSH1 0x40 MLOAD DUP1 DUP4 SUB DUP2 PUSH1 0x0 DUP8 DUP1 EXTCODESIZE ISZERO DUP1 ISZERO PUSH2 0x1728 JUMPI PUSH1 0x0 DUP1 REVERT JUMPDEST POP GAS CALL ISZERO DUP1 ISZERO PUSH2 0x173C JUMPI RETURNDATASIZE PUSH1 0x0 DUP1 RETURNDATACOPY RETURNDATASIZE PUSH1 0x0 REVERT JUMPDEST POP POP POP POP PUSH1 0x0 PUSH1 0x2 DUP4 DUP2 SLOAD DUP2 LT PUSH2 0x1756 JUMPI PUSH2 0x1755 PUSH2 0x2C70 JUMP JUMPDEST JUMPDEST SWAP1 PUSH1 0x0 MSTORE PUSH1 0x20 PUSH1 0x0 KECCAK256 SWAP1 PUSH1 0xA MUL ADD PUSH1 0x4 ADD SLOAD SWAP1 POP PUSH1 0x0 PUSH1 0x2 DUP5 DUP2 SLOAD DUP2 LT PUSH2 0x1780 JUMPI PUSH2 0x177F PUSH2 0x2C70 JUMP JUMPDEST JUMPDEST SWAP1 PUSH1 0x0 MSTORE PUSH1 0x20 PUSH1 0x0 KECCAK256 SWAP1 PUSH1 0xA MUL ADD PUSH1 0x2 ADD SLOAD PUSH1 0x2 DUP6 DUP2 SLOAD DUP2 LT PUSH2 0x17A6 JUMPI PUSH2 0x17A5 PUSH2 0x2C70 JUMP JUMPDEST JUMPDEST SWAP1 PUSH1 0x0 MSTORE PUSH1 0x20 PUSH1 0x0 KECCAK256 SWAP1 PUSH1 0xA MUL ADD PUSH1 0x4 ADD SLOAD PUSH2 0x17C2 SWAP2 SWAP1 PUSH2 0x2FD6 JUMP JUMPDEST SWAP1 POP PUSH1 0x0 PUSH1 0x64 PUSH1 0x3 DUP4 PUSH2 0x17D5 SWAP2 SWAP1 PUSH2 0x300A JUMP JUMPDEST PUSH2 0x17DF SWAP2 SWAP1 PUSH2 0x307B JUMP JUMPDEST SWAP1 POP PUSH1 0x0 DUP2 DUP5 PUSH2 0x17EF SWAP2 SWAP1 PUSH2 0x2FD6 JUMP JUMPDEST SWAP1 POP PUSH1 0x2 DUP7 DUP2 SLOAD DUP2 LT PUSH2 0x1805 JUMPI PUSH2 0x1804 PUSH2 0x2C70 JUMP JUMPDEST JUMPDEST SWAP1 PUSH1 0x0 MSTORE PUSH1 0x20 PUSH1 0x0 KECCAK256 SWAP1 PUSH1 0xA MUL ADD PUSH1 0x0 ADD PUSH1 0x0 SWAP1 SLOAD SWAP1 PUSH2 0x100 EXP SWAP1 DIV PUSH20 0xFFFFFFFFFFFFFFFFFFFFFFFFFFFFFFFFFFFFFFFF AND PUSH20 0xFFFFFFFFFFFFFFFFFFFFFFFFFFFFFFFFFFFFFFFF AND PUSH2 0x8FC DUP3 SWAP1 DUP2 ISZERO MUL SWAP1 PUSH1 0x40 MLOAD PUSH1 0x0 PUSH1 0x40 MLOAD DUP1 DUP4 SUB DUP2 DUP6 DUP9 DUP9 CALL SWAP4 POP POP POP POP ISZERO DUP1 ISZERO PUSH2 0x187C JUMPI RETURNDATASIZE PUSH1 0x0 DUP1 RETURNDATACOPY RETURNDATASIZE PUSH1 0x0 REVERT JUMPDEST POP PUSH1 0x1 PUSH1 0x2 DUP8 DUP2 SLOAD DUP2 LT PUSH2 0x1893 JUMPI PUSH2 0x1892 PUSH2 0x2C70 JUMP JUMPDEST JUMPDEST SWAP1 PUSH1 0x0 MSTORE PUSH1 0x20 PUSH1 0x0 KECCAK256 SWAP1 PUSH1 0xA MUL ADD PUSH1 0x8 ADD PUSH1 0x0 PUSH2 0x100 EXP DUP2 SLOAD DUP2 PUSH1 0xFF MUL NOT AND SWAP1 DUP4 ISZERO ISZERO MUL OR SWAP1 SSTORE POP PUSH1 0x0 PUSH1 0x2 DUP8 DUP2 SLOAD DUP2 LT PUSH2 0x18D1 JUMPI PUSH2 0x18D0 PUSH2 0x2C70 JUMP JUMPDEST JUMPDEST SWAP1 PUSH1 0x0 MSTORE PUSH1 0x20 PUSH1 0x0 KECCAK256 SWAP1 PUSH1 0xA MUL ADD PUSH1 0x8 ADD PUSH1 0x1 PUSH2 0x100 EXP DUP2 SLOAD DUP2 PUSH1 0xFF MUL NOT AND SWAP1 DUP4 ISZERO ISZERO MUL OR SWAP1 SSTORE POP PUSH1 0x2 DUP7 DUP2 SLOAD DUP2 LT PUSH2 0x190D JUMPI PUSH2 0x190C PUSH2 0x2C70 JUMP JUMPDEST JUMPDEST SWAP1 PUSH1 0x0 MSTORE PUSH1 0x20 PUSH1 0x0 KECCAK256 SWAP1 PUSH1 0xA MUL ADD PUSH1 0x5 ADD PUSH1 0x0 SWAP1 SLOAD SWAP1 PUSH2 0x100 EXP SWAP1 DIV PUSH20 0xFFFFFFFFFFFFFFFFFFFFFFFFFFFFFFFFFFFFFFFF AND PUSH20 0xFFFFFFFFFFFFFFFFFFFFFFFFFFFFFFFFFFFFFFFF AND PUSH1 0x2 DUP8 DUP2 SLOAD DUP2 LT PUSH2 0x1969 JUMPI PUSH2 0x1968 PUSH2 0x2C70 JUMP JUMPDEST JUMPDEST SWAP1 PUSH1 0x0 MSTORE PUSH1 0x20 PUSH1 0x0 KECCAK256 SWAP1 PUSH1 0xA MUL ADD PUSH1 0x0 ADD PUSH1 0x0 SWAP1 SLOAD SWAP1 PUSH2 0x100 EXP SWAP1 DIV PUSH20 0xFFFFFFFFFFFFFFFFFFFFFFFFFFFFFFFFFFFFFFFF AND PUSH20 0xFFFFFFFFFFFFFFFFFFFFFFFFFFFFFFFFFFFFFFFF AND CALLER PUSH20 0xFFFFFFFFFFFFFFFFFFFFFFFFFFFFFFFFFFFFFFFF AND PUSH32 0x5F28C5B55C548D31275B9E946C3D1FBCDF9AFD369BAEFB11250B8F4F4F5F53B4 DUP10 PUSH1 0x2 DUP12 DUP2 SLOAD DUP2 LT PUSH2 0x19FE JUMPI PUSH2 0x19FD PUSH2 0x2C70 JUMP JUMPDEST JUMPDEST SWAP1 PUSH1 0x0 MSTORE PUSH1 0x20 PUSH1 0x0 KECCAK256 SWAP1 PUSH1 0xA MUL ADD PUSH1 0x1 ADD SLOAD DUP10 PUSH1 0x40 MLOAD PUSH2 0x1A20 SWAP4 SWAP3 SWAP2 SWAP1 PUSH2 0x30AC JUMP JUMPDEST PUSH1 0x40 MLOAD DUP1 SWAP2 SUB SWAP1 LOG4 POP POP POP POP POP POP JUMP JUMPDEST PUSH1 0x0 PUSH1 0x2 DUP3 DUP2 SLOAD DUP2 LT PUSH2 0x1A46 JUMPI PUSH2 0x1A45 PUSH2 0x2C70 JUMP JUMPDEST JUMPDEST SWAP1 PUSH1 0x0 MSTORE PUSH1 0x20 PUSH1 0x0 KECCAK256 SWAP1 PUSH1 0xA MUL ADD PUSH1 0x40 MLOAD DUP1 PUSH2 0x160 ADD PUSH1 0x40 MSTORE SWAP1 DUP2 PUSH1 0x0 DUP3 ADD PUSH1 0x0 SWAP1 SLOAD SWAP1 PUSH2 0x100 EXP SWAP1 DIV PUSH20 0xFFFFFFFFFFFFFFFFFFFFFFFFFFFFFFFFFFFFFFFF AND PUSH20 0xFFFFFFFFFFFFFFFFFFFFFFFFFFFFFFFFFFFFFFFF AND PUSH20 0xFFFFFFFFFFFFFFFFFFFFFFFFFFFFFFFFFFFFFFFF AND DUP2 MSTORE PUSH1 0x20 ADD PUSH1 0x1 DUP3 ADD SLOAD DUP2 MSTORE PUSH1 0x20 ADD PUSH1 0x2 DUP3 ADD SLOAD DUP2 MSTORE PUSH1 0x20 ADD PUSH1 0x3 DUP3 ADD PUSH1 0x0 SWAP1 SLOAD SWAP1 PUSH2 0x100 EXP SWAP1 DIV PUSH20 0xFFFFFFFFFFFFFFFFFFFFFFFFFFFFFFFFFFFFFFFF AND PUSH20 0xFFFFFFFFFFFFFFFFFFFFFFFFFFFFFFFFFFFFFFFF AND PUSH20 0xFFFFFFFFFFFFFFFFFFFFFFFFFFFFFFFFFFFFFFFF AND DUP2 MSTORE PUSH1 0x20 ADD PUSH1 0x4 DUP3 ADD SLOAD DUP2 MSTORE PUSH1 0x20 ADD PUSH1 0x5 DUP3 ADD PUSH1 0x0 SWAP1 SLOAD SWAP1 PUSH2 0x100 EXP SWAP1 DIV PUSH20 0xFFFFFFFFFFFFFFFFFFFFFFFFFFFFFFFFFFFFFFFF AND PUSH20 0xFFFFFFFFFFFFFFFFFFFFFFFFFFFFFFFFFFFFFFFF AND PUSH20 0xFFFFFFFFFFFFFFFFFFFFFFFFFFFFFFFFFFFFFFFF AND DUP2 MSTORE PUSH1 0x20 ADD PUSH1 0x6 DUP3 ADD SLOAD DUP2 MSTORE PUSH1 0x20 ADD PUSH1 0x7 DUP3 ADD SLOAD DUP2 MSTORE PUSH1 0x20 ADD PUSH1 0x8 DUP3 ADD PUSH1 0x0 SWAP1 SLOAD SWAP1 PUSH2 0x100 EXP SWAP1 DIV PUSH1 0xFF AND ISZERO ISZERO ISZERO ISZERO DUP2 MSTORE PUSH1 0x20 ADD PUSH1 0x8 DUP3 ADD PUSH1 0x1 SWAP1 SLOAD SWAP1 PUSH2 0x100 EXP SWAP1 DIV PUSH1 0xFF AND ISZERO ISZERO ISZERO ISZERO DUP2 MSTORE PUSH1 0x20 ADD PUSH1 0x9 DUP3 ADD SLOAD DUP2 MSTORE POP POP SWAP1 POP DUP1 PUSH1 0xC0 ADD MLOAD TIMESTAMP LT ISZERO PUSH2 0x1C1D JUMPI PUSH1 0x40 MLOAD PUSH32 0x8C379A000000000000000000000000000000000000000000000000000000000 DUP2 MSTORE PUSH1 0x4 ADD PUSH2 0x1C14 SWAP1 PUSH2 0x312F JUMP JUMPDEST PUSH1 0x40 MLOAD DUP1 SWAP2 SUB SWAP1 REVERT JUMPDEST PUSH1 0x0 ISZERO ISZERO DUP2 PUSH2 0x100 ADD MLOAD ISZERO ISZERO EQ PUSH2 0x1C69 JUMPI PUSH1 0x40 MLOAD PUSH32 0x8C379A000000000000000000000000000000000000000000000000000000000 DUP2 MSTORE PUSH1 0x4 ADD PUSH2 0x1C60 SWAP1 PUSH2 0x2D7D JUMP JUMPDEST PUSH1 0x40 MLOAD DUP1 SWAP2 SUB SWAP1 REVERT JUMPDEST DUP1 PUSH2 0x120 ADD MLOAD PUSH2 0x1CAE JUMPI PUSH1 0x40 MLOAD PUSH32 0x8C379A000000000000000000000000000000000000000000000000000000000 DUP2 MSTORE PUSH1 0x4 ADD PUSH2 0x1CA5 SWAP1 PUSH2 0x2DE9 JUMP JUMPDEST PUSH1 0x40 MLOAD DUP1 SWAP2 SUB SWAP1 REVERT JUMPDEST PUSH1 0x0 DUP1 PUSH20 0xFFFFFFFFFFFFFFFFFFFFFFFFFFFFFFFFFFFFFFFF AND DUP3 PUSH1 0xA0 ADD MLOAD PUSH20 0xFFFFFFFFFFFFFFFFFFFFFFFFFFFFFFFFFFFFFFFF AND EQ PUSH2 0x1D09 JUMPI PUSH1 0x64 PUSH1 0x6E DUP4 PUSH1 0x80 ADD MLOAD PUSH2 0x1CFA SWAP2 SWAP1 PUSH2 0x300A JUMP JUMPDEST PUSH2 0x1D04 SWAP2 SWAP1 PUSH2 0x307B JUMP JUMPDEST PUSH2 0x1D0F JUMP JUMPDEST DUP2 PUSH1 0x40 ADD MLOAD JUMPDEST SWAP1 POP CALLVALUE DUP2 GT ISZERO PUSH2 0x1D54 JUMPI PUSH1 0x40 MLOAD PUSH32 0x8C379A000000000000000000000000000000000000000000000000000000000 DUP2 MSTORE PUSH1 0x4 ADD PUSH2 0x1D4B SWAP1 PUSH2 0x31C1 JUMP JUMPDEST PUSH1 0x40 MLOAD DUP1 SWAP2 SUB SWAP1 REVERT JUMPDEST CALLER PUSH20 0xFFFFFFFFFFFFFFFFFFFFFFFFFFFFFFFFFFFFFFFF AND DUP3 PUSH1 0x0 ADD MLOAD PUSH20 0xFFFFFFFFFFFFFFFFFFFFFFFFFFFFFFFFFFFFFFFF AND SUB PUSH2 0x1DC6 JUMPI PUSH1 0x40 MLOAD PUSH32 0x8C379A000000000000000000000000000000000000000000000000000000000 DUP2 MSTORE PUSH1 0x4 ADD PUSH2 0x1DBD SWAP1 PUSH2 0x322D JUMP JUMPDEST PUSH1 0x40 MLOAD DUP1 SWAP2 SUB SWAP1 REVERT JUMPDEST PUSH1 0x0 PUSH20 0xFFFFFFFFFFFFFFFFFFFFFFFFFFFFFFFFFFFFFFFF AND DUP3 PUSH1 0xA0 ADD MLOAD PUSH20 0xFFFFFFFFFFFFFFFFFFFFFFFFFFFFFFFFFFFFFFFF AND EQ PUSH2 0x1E4E JUMPI DUP2 PUSH1 0xA0 ADD MLOAD PUSH20 0xFFFFFFFFFFFFFFFFFFFFFFFFFFFFFFFFFFFFFFFF AND PUSH2 0x8FC DUP4 PUSH1 0x80 ADD MLOAD SWAP1 DUP2 ISZERO MUL SWAP1 PUSH1 0x40 MLOAD PUSH1 0x0 PUSH1 0x40 MLOAD DUP1 DUP4 SUB DUP2 DUP6 DUP9 DUP9 CALL SWAP4 POP POP POP POP ISZERO DUP1 ISZERO PUSH2 0x1E4C JUMPI RETURNDATASIZE PUSH1 0x0 DUP1 RETURNDATACOPY RETURNDATASIZE PUSH1 0x0 REVERT JUMPDEST POP JUMPDEST DUP2 PUSH1 0xA0 ADD MLOAD PUSH1 0x2 DUP5 DUP2 SLOAD DUP2 LT PUSH2 0x1E67 JUMPI PUSH2 0x1E66 PUSH2 0x2C70 JUMP JUMPDEST JUMPDEST SWAP1 PUSH1 0x0 MSTORE PUSH1 0x20 PUSH1 0x0 KECCAK256 SWAP1 PUSH1 0xA MUL ADD PUSH1 0x3 ADD PUSH1 0x0 PUSH2 0x100 EXP DUP2 SLOAD DUP2 PUSH20 0xFFFFFFFFFFFFFFFFFFFFFFFFFFFFFFFFFFFFFFFF MUL NOT AND SWAP1 DUP4 PUSH20 0xFFFFFFFFFFFFFFFFFFFFFFFFFFFFFFFFFFFFFFFF AND MUL OR SWAP1 SSTORE POP CALLER PUSH1 0x2 DUP5 DUP2 SLOAD DUP2 LT PUSH2 0x1ECB JUMPI PUSH2 0x1ECA PUSH2 0x2C70 JUMP JUMPDEST JUMPDEST SWAP1 PUSH1 0x0 MSTORE PUSH1 0x20 PUSH1 0x0 KECCAK256 SWAP1 PUSH1 0xA MUL ADD PUSH1 0x5 ADD PUSH1 0x0 PUSH2 0x100 EXP DUP2 SLOAD DUP2 PUSH20 0xFFFFFFFFFFFFFFFFFFFFFFFFFFFFFFFFFFFFFFFF MUL NOT AND SWAP1 DUP4 PUSH20 0xFFFFFFFFFFFFFFFFFFFFFFFFFFFFFFFFFFFFFFFF AND MUL OR SWAP1 SSTORE POP CALLVALUE PUSH1 0x2 DUP5 DUP2 SLOAD DUP2 LT PUSH2 0x1F2F JUMPI PUSH2 0x1F2E PUSH2 0x2C70 JUMP JUMPDEST JUMPDEST SWAP1 PUSH1 0x0 MSTORE PUSH1 0x20 PUSH1 0x0 KECCAK256 SWAP1 PUSH1 0xA MUL ADD PUSH1 0x4 ADD DUP2 SWAP1 SSTORE POP PUSH1 0x2 DUP4 DUP2 SLOAD DUP2 LT PUSH2 0x1F58 JUMPI PUSH2 0x1F57 PUSH2 0x2C70 JUMP JUMPDEST JUMPDEST SWAP1 PUSH1 0x0 MSTORE PUSH1 0x20 PUSH1 0x0 KECCAK256 SWAP1 PUSH1 0xA MUL ADD PUSH1 0x3 ADD PUSH1 0x0 SWAP1 SLOAD SWAP1 PUSH2 0x100 EXP SWAP1 DIV PUSH20 0xFFFFFFFFFFFFFFFFFFFFFFFFFFFFFFFFFFFFFFFF AND PUSH20 0xFFFFFFFFFFFFFFFFFFFFFFFFFFFFFFFFFFFFFFFF AND CALLER PUSH20 0xFFFFFFFFFFFFFFFFFFFFFFFFFFFFFFFFFFFFFFFF AND PUSH32 0x973BFC98A37F669DD0550B8A587BBE1591F69A679BB70A917F797E25F16962B2 DUP6 CALLVALUE PUSH1 0x40 MLOAD PUSH2 0x1FE8 SWAP3 SWAP2 SWAP1 PUSH2 0x2E09 JUMP JUMPDEST PUSH1 0x40 MLOAD DUP1 SWAP2 SUB SWAP1 LOG3 POP POP POP JUMP JUMPDEST PUSH2 0x1FFD PUSH2 0x2078 JUMP JUMPDEST PUSH1 0x0 PUSH20 0xFFFFFFFFFFFFFFFFFFFFFFFFFFFFFFFFFFFFFFFF AND DUP2 PUSH20 0xFFFFFFFFFFFFFFFFFFFFFFFFFFFFFFFFFFFFFFFF AND SUB PUSH2 0x206C JUMPI PUSH1 0x40 MLOAD PUSH32 0x8C379A000000000000000000000000000000000000000000000000000000000 DUP2 MSTORE PUSH1 0x4 ADD PUSH2 0x2063 SWAP1 PUSH2 0x32BF JUMP JUMPDEST PUSH1 0x40 MLOAD DUP1 SWAP2 SUB SWAP1 REVERT JUMPDEST PUSH2 0x2075 DUP2 PUSH2 0x20F6 JUMP JUMPDEST POP JUMP JUMPDEST PUSH2 0x2080 PUSH2 0x21BA JUMP JUMPDEST PUSH20 0xFFFFFFFFFFFFFFFFFFFFFFFFFFFFFFFFFFFFFFFF AND PUSH2 0x209E PUSH2 0xA75 JUMP JUMPDEST PUSH20 0xFFFFFFFFFFFFFFFFFFFFFFFFFFFFFFFFFFFFFFFF AND EQ PUSH2 0x20F4 JUMPI PUSH1 0x40 MLOAD PUSH32 0x8C379A000000000000000000000000000000000000000000000000000000000 DUP2 MSTORE PUSH1 0x4 ADD PUSH2 0x20EB SWAP1 PUSH2 0x332B JUMP JUMPDEST PUSH1 0x40 MLOAD DUP1 SWAP2 SUB SWAP1 REVERT JUMPDEST JUMP JUMPDEST PUSH1 0x0 DUP1 PUSH1 0x0 SWAP1 SLOAD SWAP1 PUSH2 0x100 EXP SWAP1 DIV PUSH20 0xFFFFFFFFFFFFFFFFFFFFFFFFFFFFFFFFFFFFFFFF AND SWAP1 POP DUP2 PUSH1 0x0 DUP1 PUSH2 0x100 EXP DUP2 SLOAD DUP2 PUSH20 0xFFFFFFFFFFFFFFFFFFFFFFFFFFFFFFFFFFFFFFFF MUL NOT AND SWAP1 DUP4 PUSH20 0xFFFFFFFFFFFFFFFFFFFFFFFFFFFFFFFFFFFFFFFF AND MUL OR SWAP1 SSTORE POP DUP2 PUSH20 0xFFFFFFFFFFFFFFFFFFFFFFFFFFFFFFFFFFFFFFFF AND DUP2 PUSH20 0xFFFFFFFFFFFFFFFFFFFFFFFFFFFFFFFFFFFFFFFF AND PUSH32 0x8BE0079C531659141344CD1FD0A4F28419497F9722A3DAAFE3B4186F6B6457E0 PUSH1 0x40 MLOAD PUSH1 0x40 MLOAD DUP1 SWAP2 SUB SWAP1 LOG3 POP POP JUMP JUMPDEST PUSH1 0x0 CALLER SWAP1 POP SWAP1 JUMP JUMPDEST PUSH1 0x40 MLOAD DUP1 PUSH2 0x160 ADD PUSH1 0x40 MSTORE DUP1 PUSH1 0x0 PUSH20 0xFFFFFFFFFFFFFFFFFFFFFFFFFFFFFFFFFFFFFFFF AND DUP2 MSTORE PUSH1 0x20 ADD PUSH1 0x0 DUP2 MSTORE PUSH1 0x20 ADD PUSH1 0x0 DUP2 MSTORE PUSH1 0x20 ADD PUSH1 0x0 PUSH20 0xFFFFFFFFFFFFFFFFFFFFFFFFFFFFFFFFFFFFFFFF AND DUP2 MSTORE PUSH1 0x20 ADD PUSH1 0x0 DUP2 MSTORE PUSH1 0x20 ADD PUSH1 0x0 PUSH20 0xFFFFFFFFFFFFFFFFFFFFFFFFFFFFFFFFFFFFFFFF AND DUP2 MSTORE PUSH1 0x20 ADD PUSH1 0x0 DUP2 MSTORE PUSH1 0x20 ADD PUSH1 0x0 DUP2 MSTORE PUSH1 0x20 ADD PUSH1 0x0 ISZERO ISZERO DUP2 MSTORE PUSH1 0x20 ADD PUSH1 0x0 ISZERO ISZERO DUP2 MSTORE PUSH1 0x20 ADD PUSH1 0x0 DUP2 MSTORE POP SWAP1 JUMP JUMPDEST PUSH1 0x0 DUP1 REVERT JUMPDEST PUSH1 0x0 DUP1 REVERT JUMPDEST PUSH1 0x0 PUSH20 0xFFFFFFFFFFFFFFFFFFFFFFFFFFFFFFFFFFFFFFFF DUP3 AND SWAP1 POP SWAP2 SWAP1 POP JUMP JUMPDEST PUSH1 0x0 PUSH2 0x2297 DUP3 PUSH2 0x226C JUMP JUMPDEST SWAP1 POP SWAP2 SWAP1 POP JUMP JUMPDEST PUSH2 0x22A7 DUP2 PUSH2 0x228C JUMP JUMPDEST DUP2 EQ PUSH2 0x22B2 JUMPI PUSH1 0x0 DUP1 REVERT JUMPDEST POP JUMP JUMPDEST PUSH1 0x0 DUP2 CALLDATALOAD SWAP1 POP PUSH2 0x22C4 DUP2 PUSH2 0x229E JUMP JUMPDEST SWAP3 SWAP2 POP POP JUMP JUMPDEST PUSH1 0x0 DUP2 SWAP1 POP SWAP2 SWAP1 POP JUMP JUMPDEST PUSH2 0x22DD DUP2 PUSH2 0x22CA JUMP JUMPDEST DUP2 EQ PUSH2 0x22E8 JUMPI PUSH1 0x0 DUP1 REVERT JUMPDEST POP JUMP JUMPDEST PUSH1 0x0 DUP2 CALLDATALOAD SWAP1 POP PUSH2 0x22FA DUP2 PUSH2 0x22D4 JUMP JUMPDEST SWAP3 SWAP2 POP POP JUMP JUMPDEST PUSH1 0x0 DUP1 REVERT JUMPDEST PUSH1 0x0 DUP1 REVERT JUMPDEST PUSH1 0x0 DUP1 REVERT JUMPDEST PUSH1 0x0 DUP1 DUP4 PUSH1 0x1F DUP5 ADD SLT PUSH2 0x2325 JUMPI PUSH2 0x2324 PUSH2 0x2300 JUMP JUMPDEST JUMPDEST DUP3 CALLDATALOAD SWAP1 POP PUSH8 0xFFFFFFFFFFFFFFFF DUP2 GT ISZERO PUSH2 0x2342 JUMPI PUSH2 0x2341 PUSH2 0x2305 JUMP JUMPDEST JUMPDEST PUSH1 0x20 DUP4 ADD SWAP2 POP DUP4 PUSH1 0x1 DUP3 MUL DUP4 ADD GT ISZERO PUSH2 0x235E JUMPI PUSH2 0x235D PUSH2 0x230A JUMP JUMPDEST JUMPDEST SWAP3 POP SWAP3 SWAP1 POP JUMP JUMPDEST PUSH1 0x0 DUP1 PUSH1 0x0 DUP1 PUSH1 0x0 PUSH1 0x80 DUP7 DUP9 SUB SLT ISZERO PUSH2 0x2381 JUMPI PUSH2 0x2380 PUSH2 0x2262 JUMP JUMPDEST JUMPDEST PUSH1 0x0 PUSH2 0x238F DUP9 DUP3 DUP10 ADD PUSH2 0x22B5 JUMP JUMPDEST SWAP6 POP POP PUSH1 0x20 PUSH2 0x23A0 DUP9 DUP3 DUP10 ADD PUSH2 0x22B5 JUMP JUMPDEST SWAP5 POP POP PUSH1 0x40 PUSH2 0x23B1 DUP9 DUP3 DUP10 ADD PUSH2 0x22EB JUMP JUMPDEST SWAP4 POP POP PUSH1 0x60 DUP7 ADD CALLDATALOAD PUSH8 0xFFFFFFFFFFFFFFFF DUP2 GT ISZERO PUSH2 0x23D2 JUMPI PUSH2 0x23D1 PUSH2 0x2267 JUMP JUMPDEST JUMPDEST PUSH2 0x23DE DUP9 DUP3 DUP10 ADD PUSH2 0x230F JUMP JUMPDEST SWAP3 POP SWAP3 POP POP SWAP3 SWAP6 POP SWAP3 SWAP6 SWAP1 SWAP4 POP JUMP JUMPDEST PUSH1 0x0 PUSH32 0xFFFFFFFF00000000000000000000000000000000000000000000000000000000 DUP3 AND SWAP1 POP SWAP2 SWAP1 POP JUMP JUMPDEST PUSH2 0x2422 DUP2 PUSH2 0x23ED JUMP JUMPDEST DUP3 MSTORE POP POP JUMP JUMPDEST PUSH1 0x0 PUSH1 0x20 DUP3 ADD SWAP1 POP PUSH2 0x243D PUSH1 0x0 DUP4 ADD DUP5 PUSH2 0x2419 JUMP JUMPDEST SWAP3 SWAP2 POP POP JUMP JUMPDEST PUSH1 0x0 DUP1 PUSH1 0x0 DUP1 PUSH1 0x80 DUP6 DUP8 SUB SLT ISZERO PUSH2 0x245D JUMPI PUSH2 0x245C PUSH2 0x2262 JUMP JUMPDEST JUMPDEST PUSH1 0x0 PUSH2 0x246B DUP8 DUP3 DUP9 ADD PUSH2 0x22EB JUMP JUMPDEST SWAP5 POP POP PUSH1 0x20 PUSH2 0x247C DUP8 DUP3 DUP9 ADD PUSH2 0x22EB JUMP JUMPDEST SWAP4 POP POP PUSH1 0x40 PUSH2 0x248D DUP8 DUP3 DUP9 ADD PUSH2 0x22EB JUMP JUMPDEST SWAP3 POP POP PUSH1 0x60 PUSH2 0x249E DUP8 DUP3 DUP9 ADD PUSH2 0x22EB JUMP JUMPDEST SWAP2 POP POP SWAP3 SWAP6 SWAP2 SWAP5 POP SWAP3 POP JUMP JUMPDEST PUSH2 0x24B3 DUP2 PUSH2 0x22CA JUMP JUMPDEST DUP3 MSTORE POP POP JUMP JUMPDEST PUSH1 0x0 PUSH1 0x20 DUP3 ADD SWAP1 POP PUSH2 0x24CE PUSH1 0x0 DUP4 ADD DUP5 PUSH2 0x24AA JUMP JUMPDEST SWAP3 SWAP2 POP POP JUMP JUMPDEST PUSH1 0x0 PUSH1 0x20 DUP3 DUP5 SUB SLT ISZERO PUSH2 0x24EA JUMPI PUSH2 0x24E9 PUSH2 0x2262 JUMP JUMPDEST JUMPDEST PUSH1 0x0 PUSH2 0x24F8 DUP5 DUP3 DUP6 ADD PUSH2 0x22EB JUMP JUMPDEST SWAP2 POP POP SWAP3 SWAP2 POP POP JUMP JUMPDEST PUSH2 0x250A DUP2 PUSH2 0x228C JUMP JUMPDEST DUP3 MSTORE POP POP JUMP JUMPDEST PUSH2 0x2519 DUP2 PUSH2 0x22CA JUMP JUMPDEST DUP3 MSTORE POP POP JUMP JUMPDEST PUSH1 0x0 DUP2 ISZERO ISZERO SWAP1 POP SWAP2 SWAP1 POP JUMP JUMPDEST PUSH2 0x2534 DUP2 PUSH2 0x251F JUMP JUMPDEST DUP3 MSTORE POP POP JUMP JUMPDEST PUSH2 0x160 DUP3 ADD PUSH1 0x0 DUP3 ADD MLOAD PUSH2 0x2551 PUSH1 0x0 DUP6 ADD DUP3 PUSH2 0x2501 JUMP JUMPDEST POP PUSH1 0x20 DUP3 ADD MLOAD PUSH2 0x2564 PUSH1 0x20 DUP6 ADD DUP3 PUSH2 0x2510 JUMP JUMPDEST POP PUSH1 0x40 DUP3 ADD MLOAD PUSH2 0x2577 PUSH1 0x40 DUP6 ADD DUP3 PUSH2 0x2510 JUMP JUMPDEST POP PUSH1 0x60 DUP3 ADD MLOAD PUSH2 0x258A PUSH1 0x60 DUP6 ADD DUP3 PUSH2 0x2501 JUMP JUMPDEST POP PUSH1 0x80 DUP3 ADD MLOAD PUSH2 0x259D PUSH1 0x80 DUP6 ADD DUP3 PUSH2 0x2510 JUMP JUMPDEST POP PUSH1 0xA0 DUP3 ADD MLOAD PUSH2 0x25B0 PUSH1 0xA0 DUP6 ADD DUP3 PUSH2 0x2501 JUMP JUMPDEST POP PUSH1 0xC0 DUP3 ADD MLOAD PUSH2 0x25C3 PUSH1 0xC0 DUP6 ADD DUP3 PUSH2 0x2510 JUMP JUMPDEST POP PUSH1 0xE0 DUP3 ADD MLOAD PUSH2 0x25D6 PUSH1 0xE0 DUP6 ADD DUP3 PUSH2 0x2510 JUMP JUMPDEST POP PUSH2 0x100 DUP3 ADD MLOAD PUSH2 0x25EB PUSH2 0x100 DUP6 ADD DUP3 PUSH2 0x252B JUMP JUMPDEST POP PUSH2 0x120 DUP3 ADD MLOAD PUSH2 0x2600 PUSH2 0x120 DUP6 ADD DUP3 PUSH2 0x252B JUMP JUMPDEST POP PUSH2 0x140 DUP3 ADD MLOAD PUSH2 0x2615 PUSH2 0x140 DUP6 ADD DUP3 PUSH2 0x2510 JUMP JUMPDEST POP POP POP POP JUMP JUMPDEST PUSH1 0x0 PUSH2 0x160 DUP3 ADD SWAP1 POP PUSH2 0x2631 PUSH1 0x0 DUP4 ADD DUP5 PUSH2 0x253A JUMP JUMPDEST SWAP3 SWAP2 POP POP JUMP JUMPDEST PUSH2 0x2640 DUP2 PUSH2 0x228C JUMP JUMPDEST DUP3 MSTORE POP POP JUMP JUMPDEST PUSH1 0x0 PUSH1 0x20 DUP3 ADD SWAP1 POP PUSH2 0x265B PUSH1 0x0 DUP4 ADD DUP5 PUSH2 0x2637 JUMP JUMPDEST SWAP3 SWAP2 POP POP JUMP JUMPDEST PUSH2 0x266A DUP2 PUSH2 0x251F JUMP JUMPDEST DUP2 EQ PUSH2 0x2675 JUMPI PUSH1 0x0 DUP1 REVERT JUMPDEST POP JUMP JUMPDEST PUSH1 0x0 DUP2 CALLDATALOAD SWAP1 POP PUSH2 0x2687 DUP2 PUSH2 0x2661 JUMP JUMPDEST SWAP3 SWAP2 POP POP JUMP JUMPDEST PUSH1 0x0 PUSH1 0x20 DUP3 DUP5 SUB SLT ISZERO PUSH2 0x26A3 JUMPI PUSH2 0x26A2 PUSH2 0x2262 JUMP JUMPDEST JUMPDEST PUSH1 0x0 PUSH2 0x26B1 DUP5 DUP3 DUP6 ADD PUSH2 0x2678 JUMP JUMPDEST SWAP2 POP POP SWAP3 SWAP2 POP POP JUMP JUMPDEST PUSH1 0x0 DUP2 MLOAD SWAP1 POP SWAP2 SWAP1 POP JUMP JUMPDEST PUSH1 0x0 DUP3 DUP3 MSTORE PUSH1 0x20 DUP3 ADD SWAP1 POP SWAP3 SWAP2 POP POP JUMP JUMPDEST PUSH1 0x0 DUP2 SWAP1 POP PUSH1 0x20 DUP3 ADD SWAP1 POP SWAP2 SWAP1 POP JUMP JUMPDEST PUSH2 0x160 DUP3 ADD PUSH1 0x0 DUP3 ADD MLOAD PUSH2 0x26FD PUSH1 0x0 DUP6 ADD DUP3 PUSH2 0x2501 JUMP JUMPDEST POP PUSH1 0x20 DUP3 ADD MLOAD PUSH2 0x2710 PUSH1 0x20 DUP6 ADD DUP3 PUSH2 0x2510 JUMP JUMPDEST POP PUSH1 0x40 DUP3 ADD MLOAD PUSH2 0x2723 PUSH1 0x40 DUP6 ADD DUP3 PUSH2 0x2510 JUMP JUMPDEST POP PUSH1 0x60 DUP3 ADD MLOAD PUSH2 0x2736 PUSH1 0x60 DUP6 ADD DUP3 PUSH2 0x2501 JUMP JUMPDEST POP PUSH1 0x80 DUP3 ADD MLOAD PUSH2 0x2749 PUSH1 0x80 DUP6 ADD DUP3 PUSH2 0x2510 JUMP JUMPDEST POP PUSH1 0xA0 DUP3 ADD MLOAD PUSH2 0x275C PUSH1 0xA0 DUP6 ADD DUP3 PUSH2 0x2501 JUMP JUMPDEST POP PUSH1 0xC0 DUP3 ADD MLOAD PUSH2 0x276F PUSH1 0xC0 DUP6 ADD DUP3 PUSH2 0x2510 JUMP JUMPDEST POP PUSH1 0xE0 DUP3 ADD MLOAD PUSH2 0x2782 PUSH1 0xE0 DUP6 ADD DUP3 PUSH2 0x2510 JUMP JUMPDEST POP PUSH2 0x100 DUP3 ADD MLOAD PUSH2 0x2797 PUSH2 0x100 DUP6 ADD DUP3 PUSH2 0x252B JUMP JUMPDEST POP PUSH2 0x120 DUP3 ADD MLOAD PUSH2 0x27AC PUSH2 0x120 DUP6 ADD DUP3 PUSH2 0x252B JUMP JUMPDEST POP PUSH2 0x140 DUP3 ADD MLOAD PUSH2 0x27C1 PUSH2 0x140 DUP6 ADD DUP3 PUSH2 0x2510 JUMP JUMPDEST POP POP POP POP JUMP JUMPDEST PUSH1 0x0 PUSH2 0x27D3 DUP4 DUP4 PUSH2 0x26E6 JUMP JUMPDEST PUSH2 0x160 DUP4 ADD SWAP1 POP SWAP3 SWAP2 POP POP JUMP JUMPDEST PUSH1 0x0 PUSH1 0x20 DUP3 ADD SWAP1 POP SWAP2 SWAP1 POP JUMP JUMPDEST PUSH1 0x0 PUSH2 0x27F8 DUP3 PUSH2 0x26BA JUMP JUMPDEST PUSH2 0x2802 DUP2 DUP6 PUSH2 0x26C5 JUMP JUMPDEST SWAP4 POP PUSH2 0x280D DUP4 PUSH2 0x26D6 JUMP JUMPDEST DUP1 PUSH1 0x0 JUMPDEST DUP4 DUP2 LT ISZERO PUSH2 0x283E JUMPI DUP2 MLOAD PUSH2 0x2825 DUP9 DUP3 PUSH2 0x27C7 JUMP JUMPDEST SWAP8 POP PUSH2 0x2830 DUP4 PUSH2 0x27E0 JUMP JUMPDEST SWAP3 POP POP PUSH1 0x1 DUP2 ADD SWAP1 POP PUSH2 0x2811 JUMP JUMPDEST POP DUP6 SWAP4 POP POP POP POP SWAP3 SWAP2 POP POP JUMP JUMPDEST PUSH1 0x0 PUSH1 0x20 DUP3 ADD SWAP1 POP DUP2 DUP2 SUB PUSH1 0x0 DUP4 ADD MSTORE PUSH2 0x2865 DUP2 DUP5 PUSH2 0x27ED JUMP JUMPDEST SWAP1 POP SWAP3 SWAP2 POP POP JUMP JUMPDEST PUSH1 0x0 PUSH1 0x20 DUP3 DUP5 SUB SLT ISZERO PUSH2 0x2883 JUMPI PUSH2 0x2882 PUSH2 0x2262 JUMP JUMPDEST JUMPDEST PUSH1 0x0 PUSH2 0x2891 DUP5 DUP3 DUP6 ADD PUSH2 0x22B5 JUMP JUMPDEST SWAP2 POP POP SWAP3 SWAP2 POP POP JUMP JUMPDEST PUSH1 0x0 DUP3 DUP3 MSTORE PUSH1 0x20 DUP3 ADD SWAP1 POP SWAP3 SWAP2 POP POP JUMP JUMPDEST PUSH32 0x41756374696F6E2063616E206E6F742073746172740000000000000000000000 PUSH1 0x0 DUP3 ADD MSTORE POP JUMP JUMPDEST PUSH1 0x0 PUSH2 0x28E1 PUSH1 0x15 DUP4 PUSH2 0x289A JUMP JUMPDEST SWAP2 POP PUSH2 0x28EC DUP3 PUSH2 0x28AB JUMP JUMPDEST PUSH1 0x20 DUP3 ADD SWAP1 POP SWAP2 SWAP1 POP JUMP JUMPDEST PUSH1 0x0 PUSH1 0x20 DUP3 ADD SWAP1 POP DUP2 DUP2 SUB PUSH1 0x0 DUP4 ADD MSTORE PUSH2 0x2910 DUP2 PUSH2 0x28D4 JUMP JUMPDEST SWAP1 POP SWAP2 SWAP1 POP JUMP JUMPDEST PUSH32 0x41756374696F6E2063616E206E6F7420656E64206265666F7265206974207374 PUSH1 0x0 DUP3 ADD MSTORE PUSH32 0x6172747300000000000000000000000000000000000000000000000000000000 PUSH1 0x20 DUP3 ADD MSTORE POP JUMP JUMPDEST PUSH1 0x0 PUSH2 0x2973 PUSH1 0x24 DUP4 PUSH2 0x289A JUMP JUMPDEST SWAP2 POP PUSH2 0x297E DUP3 PUSH2 0x2917 JUMP JUMPDEST PUSH1 0x40 DUP3 ADD SWAP1 POP SWAP2 SWAP1 POP JUMP JUMPDEST PUSH1 0x0 PUSH1 0x20 DUP3 ADD SWAP1 POP DUP2 DUP2 SUB PUSH1 0x0 DUP4 ADD MSTORE PUSH2 0x29A2 DUP2 PUSH2 0x2966 JUMP JUMPDEST SWAP1 POP SWAP2 SWAP1 POP JUMP JUMPDEST PUSH32 0x496E697469616C207072696365206D7573742062652067726561746572207468 PUSH1 0x0 DUP3 ADD MSTORE PUSH32 0x616E203000000000000000000000000000000000000000000000000000000000 PUSH1 0x20 DUP3 ADD MSTORE POP JUMP JUMPDEST PUSH1 0x0 PUSH2 0x2A05 PUSH1 0x24 DUP4 PUSH2 0x289A JUMP JUMPDEST SWAP2 POP PUSH2 0x2A10 DUP3 PUSH2 0x29A9 JUMP JUMPDEST PUSH1 0x40 DUP3 ADD SWAP1 POP SWAP2 SWAP1 POP JUMP JUMPDEST PUSH1 0x0 PUSH1 0x20 DUP3 ADD SWAP1 POP DUP2 DUP2 SUB PUSH1 0x0 DUP4 ADD MSTORE PUSH2 0x2A34 DUP2 PUSH2 0x29F8 JUMP JUMPDEST SWAP1 POP SWAP2 SWAP1 POP JUMP JUMPDEST PUSH1 0x0 DUP2 MLOAD SWAP1 POP PUSH2 0x2A4A DUP2 PUSH2 0x229E JUMP JUMPDEST SWAP3 SWAP2 POP POP JUMP JUMPDEST PUSH1 0x0 PUSH1 0x20 DUP3 DUP5 SUB SLT ISZERO PUSH2 0x2A66 JUMPI PUSH2 0x2A65 PUSH2 0x2262 JUMP JUMPDEST JUMPDEST PUSH1 0x0 PUSH2 0x2A74 DUP5 DUP3 DUP6 ADD PUSH2 0x2A3B JUMP JUMPDEST SWAP2 POP POP SWAP3 SWAP2 POP POP JUMP JUMPDEST PUSH32 0x4D757374207374616B6520796F7572206F776E20746F6B656E00000000000000 PUSH1 0x0 DUP3 ADD MSTORE POP JUMP JUMPDEST PUSH1 0x0 PUSH2 0x2AB3 PUSH1 0x19 DUP4 PUSH2 0x289A JUMP JUMPDEST SWAP2 POP PUSH2 0x2ABE DUP3 PUSH2 0x2A7D JUMP JUMPDEST PUSH1 0x20 DUP3 ADD SWAP1 POP SWAP2 SWAP1 POP JUMP JUMPDEST PUSH1 0x0 PUSH1 0x20 DUP3 ADD SWAP1 POP DUP2 DUP2 SUB PUSH1 0x0 DUP4 ADD MSTORE PUSH2 0x2AE2 DUP2 PUSH2 0x2AA6 JUMP JUMPDEST SWAP1 POP SWAP2 SWAP1 POP JUMP JUMPDEST PUSH1 0x0 PUSH1 0x40 DUP3 ADD SWAP1 POP PUSH2 0x2AFE PUSH1 0x0 DUP4 ADD DUP6 PUSH2 0x2637 JUMP JUMPDEST PUSH2 0x2B0B PUSH1 0x20 DUP4 ADD DUP5 PUSH2 0x2637 JUMP JUMPDEST SWAP4 SWAP3 POP POP POP JUMP JUMPDEST PUSH1 0x0 DUP2 MLOAD SWAP1 POP PUSH2 0x2B21 DUP2 PUSH2 0x2661 JUMP JUMPDEST SWAP3 SWAP2 POP POP JUMP JUMPDEST PUSH1 0x0 PUSH1 0x20 DUP3 DUP5 SUB SLT ISZERO PUSH2 0x2B3D JUMPI PUSH2 0x2B3C PUSH2 0x2262 JUMP JUMPDEST JUMPDEST PUSH1 0x0 PUSH2 0x2B4B DUP5 DUP3 DUP6 ADD PUSH2 0x2B12 JUMP JUMPDEST SWAP2 POP POP SWAP3 SWAP2 POP POP JUMP JUMPDEST PUSH32 0x4D61726B6574706C616365206973206E6F7420617070726F76656420746F2074 PUSH1 0x0 DUP3 ADD MSTORE PUSH32 0x72616E736665722074686973204E465400000000000000000000000000000000 PUSH1 0x20 DUP3 ADD MSTORE POP JUMP JUMPDEST PUSH1 0x0 PUSH2 0x2BB0 PUSH1 0x30 DUP4 PUSH2 0x289A JUMP JUMPDEST SWAP2 POP PUSH2 0x2BBB DUP3 PUSH2 0x2B54 JUMP JUMPDEST PUSH1 0x40 DUP3 ADD SWAP1 POP SWAP2 SWAP1 POP JUMP JUMPDEST PUSH1 0x0 PUSH1 0x20 DUP3 ADD SWAP1 POP DUP2 DUP2 SUB PUSH1 0x0 DUP4 ADD MSTORE PUSH2 0x2BDF DUP2 PUSH2 0x2BA3 JUMP JUMPDEST SWAP1 POP SWAP2 SWAP1 POP JUMP JUMPDEST PUSH1 0x0 PUSH1 0x60 DUP3 ADD SWAP1 POP PUSH2 0x2BFB PUSH1 0x0 DUP4 ADD DUP7 PUSH2 0x2637 JUMP JUMPDEST PUSH2 0x2C08 PUSH1 0x20 DUP4 ADD DUP6 PUSH2 0x2637 JUMP JUMPDEST PUSH2 0x2C15 PUSH1 0x40 DUP4 ADD DUP5 PUSH2 0x24AA JUMP JUMPDEST SWAP5 SWAP4 POP POP POP POP JUMP JUMPDEST PUSH1 0x0 PUSH1 0xA0 DUP3 ADD SWAP1 POP PUSH2 0x2C32 PUSH1 0x0 DUP4 ADD DUP9 PUSH2 0x24AA JUMP JUMPDEST PUSH2 0x2C3F PUSH1 0x20 DUP4 ADD DUP8 PUSH2 0x24AA JUMP JUMPDEST PUSH2 0x2C4C PUSH1 0x40 DUP4 ADD DUP7 PUSH2 0x24AA JUMP JUMPDEST PUSH2 0x2C59 PUSH1 0x60 DUP4 ADD DUP6 PUSH2 0x24AA JUMP JUMPDEST PUSH2 0x2C66 PUSH1 0x80 DUP4 ADD DUP5 PUSH2 0x24AA JUMP JUMPDEST SWAP7 SWAP6 POP POP POP POP POP POP JUMP JUMPDEST PUSH32 0x4E487B7100000000000000000000000000000000000000000000000000000000 PUSH1 0x0 MSTORE PUSH1 0x32 PUSH1 0x4 MSTORE PUSH1 0x24 PUSH1 0x0 REVERT JUMPDEST PUSH32 0x4F6E6C792061756374696F6E656572206F72206F776E65722063616E20706572 PUSH1 0x0 DUP3 ADD MSTORE PUSH32 0x666F726D207468697320616374696F6E00000000000000000000000000000000 PUSH1 0x20 DUP3 ADD MSTORE POP JUMP JUMPDEST PUSH1 0x0 PUSH2 0x2CFB PUSH1 0x30 DUP4 PUSH2 0x289A JUMP JUMPDEST SWAP2 POP PUSH2 0x2D06 DUP3 PUSH2 0x2C9F JUMP JUMPDEST PUSH1 0x40 DUP3 ADD SWAP1 POP SWAP2 SWAP1 POP JUMP JUMPDEST PUSH1 0x0 PUSH1 0x20 DUP3 ADD SWAP1 POP DUP2 DUP2 SUB PUSH1 0x0 DUP4 ADD MSTORE PUSH2 0x2D2A DUP2 PUSH2 0x2CEE JUMP JUMPDEST SWAP1 POP SWAP2 SWAP1 POP JUMP JUMPDEST PUSH32 0x41756374696F6E20697320616C726561647920636F6D706C6574656400000000 PUSH1 0x0 DUP3 ADD MSTORE POP JUMP JUMPDEST PUSH1 0x0 PUSH2 0x2D67 PUSH1 0x1C DUP4 PUSH2 0x289A JUMP JUMPDEST SWAP2 POP PUSH2 0x2D72 DUP3 PUSH2 0x2D31 JUMP JUMPDEST PUSH1 0x20 DUP3 ADD SWAP1 POP SWAP2 SWAP1 POP JUMP JUMPDEST PUSH1 0x0 PUSH1 0x20 DUP3 ADD SWAP1 POP DUP2 DUP2 SUB PUSH1 0x0 DUP4 ADD MSTORE PUSH2 0x2D96 DUP2 PUSH2 0x2D5A JUMP JUMPDEST SWAP1 POP SWAP2 SWAP1 POP JUMP JUMPDEST PUSH32 0x41756374696F6E206973206E6F74206163746976650000000000000000000000 PUSH1 0x0 DUP3 ADD MSTORE POP JUMP JUMPDEST PUSH1 0x0 PUSH2 0x2DD3 PUSH1 0x15 DUP4 PUSH2 0x289A JUMP JUMPDEST SWAP2 POP PUSH2 0x2DDE DUP3 PUSH2 0x2D9D JUMP JUMPDEST PUSH1 0x20 DUP3 ADD SWAP1 POP SWAP2 SWAP1 POP JUMP JUMPDEST PUSH1 0x0 PUSH1 0x20 DUP3 ADD SWAP1 POP DUP2 DUP2 SUB PUSH1 0x0 DUP4 ADD MSTORE PUSH2 0x2E02 DUP2 PUSH2 0x2DC6 JUMP JUMPDEST SWAP1 POP SWAP2 SWAP1 POP JUMP JUMPDEST PUSH1 0x0 PUSH1 0x40 DUP3 ADD SWAP1 POP PUSH2 0x2E1E PUSH1 0x0 DUP4 ADD DUP6 PUSH2 0x24AA JUMP JUMPDEST PUSH2 0x2E2B PUSH1 0x20 DUP4 ADD DUP5 PUSH2 0x24AA JUMP JUMPDEST SWAP4 SWAP3 POP POP POP JUMP JUMPDEST PUSH32 0x4E487B7100000000000000000000000000000000000000000000000000000000 PUSH1 0x0 MSTORE PUSH1 0x11 PUSH1 0x4 MSTORE PUSH1 0x24 PUSH1 0x0 REVERT JUMPDEST PUSH1 0x0 PUSH2 0x2E6C DUP3 PUSH2 0x22CA JUMP JUMPDEST SWAP2 POP PUSH32 0xFFFFFFFFFFFFFFFFFFFFFFFFFFFFFFFFFFFFFFFFFFFFFFFFFFFFFFFFFFFFFFFF DUP3 SUB PUSH2 0x2E9E JUMPI PUSH2 0x2E9D PUSH2 0x2E32 JUMP JUMPDEST JUMPDEST PUSH1 0x1 DUP3 ADD SWAP1 POP SWAP2 SWAP1 POP JUMP JUMPDEST PUSH32 0x4E487B7100000000000000000000000000000000000000000000000000000000 PUSH1 0x0 MSTORE PUSH1 0x41 PUSH1 0x4 MSTORE PUSH1 0x24 PUSH1 0x0 REVERT JUMPDEST PUSH32 0x4E6F20626964732077657265206D61646520696E20746869732061756374696F PUSH1 0x0 DUP3 ADD MSTORE PUSH32 0x6E00000000000000000000000000000000000000000000000000000000000000 PUSH1 0x20 DUP3 ADD MSTORE POP JUMP JUMPDEST PUSH1 0x0 PUSH2 0x2F34 PUSH1 0x21 DUP4 PUSH2 0x289A JUMP JUMPDEST SWAP2 POP PUSH2 0x2F3F DUP3 PUSH2 0x2ED8 JUMP JUMPDEST PUSH1 0x40 DUP3 ADD SWAP1 POP SWAP2 SWAP1 POP JUMP JUMPDEST PUSH1 0x0 PUSH1 0x20 DUP3 ADD SWAP1 POP DUP2 DUP2 SUB PUSH1 0x0 DUP4 ADD MSTORE PUSH2 0x2F63 DUP2 PUSH2 0x2F27 JUMP JUMPDEST SWAP1 POP SWAP2 SWAP1 POP JUMP JUMPDEST PUSH32 0x41756374696F6E20686173206E6F7420656E6465642079657400000000000000 PUSH1 0x0 DUP3 ADD MSTORE POP JUMP JUMPDEST PUSH1 0x0 PUSH2 0x2FA0 PUSH1 0x19 DUP4 PUSH2 0x289A JUMP JUMPDEST SWAP2 POP PUSH2 0x2FAB DUP3 PUSH2 0x2F6A JUMP JUMPDEST PUSH1 0x20 DUP3 ADD SWAP1 POP SWAP2 SWAP1 POP JUMP JUMPDEST PUSH1 0x0 PUSH1 0x20 DUP3 ADD SWAP1 POP DUP2 DUP2 SUB PUSH1 0x0 DUP4 ADD MSTORE PUSH2 0x2FCF DUP2 PUSH2 0x2F93 JUMP JUMPDEST SWAP1 POP SWAP2 SWAP1 POP JUMP JUMPDEST PUSH1 0x0 PUSH2 0x2FE1 DUP3 PUSH2 0x22CA JUMP JUMPDEST SWAP2 POP PUSH2 0x2FEC DUP4 PUSH2 0x22CA JUMP JUMPDEST SWAP3 POP DUP3 DUP3 SUB SWAP1 POP DUP2 DUP2 GT ISZERO PUSH2 0x3004 JUMPI PUSH2 0x3003 PUSH2 0x2E32 JUMP JUMPDEST JUMPDEST SWAP3 SWAP2 POP POP JUMP JUMPDEST PUSH1 0x0 PUSH2 0x3015 DUP3 PUSH2 0x22CA JUMP JUMPDEST SWAP2 POP PUSH2 0x3020 DUP4 PUSH2 0x22CA JUMP JUMPDEST SWAP3 POP DUP3 DUP3 MUL PUSH2 0x302E DUP2 PUSH2 0x22CA JUMP JUMPDEST SWAP2 POP DUP3 DUP3 DIV DUP5 EQ DUP4 ISZERO OR PUSH2 0x3045 JUMPI PUSH2 0x3044 PUSH2 0x2E32 JUMP JUMPDEST JUMPDEST POP SWAP3 SWAP2 POP POP JUMP JUMPDEST PUSH32 0x4E487B7100000000000000000000000000000000000000000000000000000000 PUSH1 0x0 MSTORE PUSH1 0x12 PUSH1 0x4 MSTORE PUSH1 0x24 PUSH1 0x0 REVERT JUMPDEST PUSH1 0x0 PUSH2 0x3086 DUP3 PUSH2 0x22CA JUMP JUMPDEST SWAP2 POP PUSH2 0x3091 DUP4 PUSH2 0x22CA JUMP JUMPDEST SWAP3 POP DUP3 PUSH2 0x30A1 JUMPI PUSH2 0x30A0 PUSH2 0x304C JUMP JUMPDEST JUMPDEST DUP3 DUP3 DIV SWAP1 POP SWAP3 SWAP2 POP POP JUMP JUMPDEST PUSH1 0x0 PUSH1 0x60 DUP3 ADD SWAP1 POP PUSH2 0x30C1 PUSH1 0x0 DUP4 ADD DUP7 PUSH2 0x24AA JUMP JUMPDEST PUSH2 0x30CE PUSH1 0x20 DUP4 ADD DUP6 PUSH2 0x24AA JUMP JUMPDEST PUSH2 0x30DB PUSH1 0x40 DUP4 ADD DUP5 PUSH2 0x24AA JUMP JUMPDEST SWAP5 SWAP4 POP POP POP POP JUMP JUMPDEST PUSH32 0x41756374696F6E20686173206E6F742073746172746564000000000000000000 PUSH1 0x0 DUP3 ADD MSTORE POP JUMP JUMPDEST PUSH1 0x0 PUSH2 0x3119 PUSH1 0x17 DUP4 PUSH2 0x289A JUMP JUMPDEST SWAP2 POP PUSH2 0x3124 DUP3 PUSH2 0x30E3 JUMP JUMPDEST PUSH1 0x20 DUP3 ADD SWAP1 POP SWAP2 SWAP1 POP JUMP JUMPDEST PUSH1 0x0 PUSH1 0x20 DUP3 ADD SWAP1 POP DUP2 DUP2 SUB PUSH1 0x0 DUP4 ADD MSTORE PUSH2 0x3148 DUP2 PUSH2 0x310C JUMP JUMPDEST SWAP1 POP SWAP2 SWAP1 POP JUMP JUMPDEST PUSH32 0x426964207072696365206D7573742062652067726561746572207468616E2074 PUSH1 0x0 DUP3 ADD MSTORE PUSH32 0x6865206D696E696D756D20707269636500000000000000000000000000000000 PUSH1 0x20 DUP3 ADD MSTORE POP JUMP JUMPDEST PUSH1 0x0 PUSH2 0x31AB PUSH1 0x30 DUP4 PUSH2 0x289A JUMP JUMPDEST SWAP2 POP PUSH2 0x31B6 DUP3 PUSH2 0x314F JUMP JUMPDEST PUSH1 0x40 DUP3 ADD SWAP1 POP SWAP2 SWAP1 POP JUMP JUMPDEST PUSH1 0x0 PUSH1 0x20 DUP3 ADD SWAP1 POP DUP2 DUP2 SUB PUSH1 0x0 DUP4 ADD MSTORE PUSH2 0x31DA DUP2 PUSH2 0x319E JUMP JUMPDEST SWAP1 POP SWAP2 SWAP1 POP JUMP JUMPDEST PUSH32 0x43616E206E6F7420626964206F6E20796F7572206F776E2061756374696F6E00 PUSH1 0x0 DUP3 ADD MSTORE POP JUMP JUMPDEST PUSH1 0x0 PUSH2 0x3217 PUSH1 0x1F DUP4 PUSH2 0x289A JUMP JUMPDEST SWAP2 POP PUSH2 0x3222 DUP3 PUSH2 0x31E1 JUMP JUMPDEST PUSH1 0x20 DUP3 ADD SWAP1 POP SWAP2 SWAP1 POP JUMP JUMPDEST PUSH1 0x0 PUSH1 0x20 DUP3 ADD SWAP1 POP DUP2 DUP2 SUB PUSH1 0x0 DUP4 ADD MSTORE PUSH2 0x3246 DUP2 PUSH2 0x320A JUMP JUMPDEST SWAP1 POP SWAP2 SWAP1 POP JUMP JUMPDEST PUSH32 0x4F776E61626C653A206E6577206F776E657220697320746865207A65726F2061 PUSH1 0x0 DUP3 ADD MSTORE PUSH32 0x6464726573730000000000000000000000000000000000000000000000000000 PUSH1 0x20 DUP3 ADD MSTORE POP JUMP JUMPDEST PUSH1 0x0 PUSH2 0x32A9 PUSH1 0x26 DUP4 PUSH2 0x289A JUMP JUMPDEST SWAP2 POP PUSH2 0x32B4 DUP3 PUSH2 0x324D JUMP JUMPDEST PUSH1 0x40 DUP3 ADD SWAP1 POP SWAP2 SWAP1 POP JUMP JUMPDEST PUSH1 0x0 PUSH1 0x20 DUP3 ADD SWAP1 POP DUP2 DUP2 SUB PUSH1 0x0 DUP4 ADD MSTORE PUSH2 0x32D8 DUP2 PUSH2 0x329C JUMP JUMPDEST SWAP1 POP SWAP2 SWAP1 POP JUMP JUMPDEST PUSH32 0x4F776E61626C653A2063616C6C6572206973206E6F7420746865206F776E6572 PUSH1 0x0 DUP3 ADD MSTORE POP JUMP JUMPDEST PUSH1 0x0 PUSH2 0x3315 PUSH1 0x20 DUP4 PUSH2 0x289A JUMP JUMPDEST SWAP2 POP PUSH2 0x3320 DUP3 PUSH2 0x32DF JUMP JUMPDEST PUSH1 0x20 DUP3 ADD SWAP1 POP SWAP2 SWAP1 POP JUMP JUMPDEST PUSH1 0x0 PUSH1 0x20 DUP3 ADD SWAP1 POP DUP2 DUP2 SUB PUSH1 0x0 DUP4 ADD MSTORE PUSH2 0x3344 DUP2 PUSH2 0x3308 JUMP JUMPDEST SWAP1 POP SWAP2 SWAP1 POP JUMP INVALID LOG2 PUSH5 0x6970667358 0x22 SLT KECCAK256 SMOD KECCAK256 PUSH9 0x166C0290627F541B5B 0xC9 SWAP4 0xC4 DUP2 EXTCODECOPY 0xE8 0xD8 BASEFEE OR REVERT 0xFC CODESIZE DUP8 0xA8 CALLCODE 0xCC 0xEF MUL PUSH21 0x6464736F6C63430008180033000000000000000000 "
        },
        "methodIdentifiers": {
          "AUCTION_SERVICE_FEE_RATE()": "bd0a079d",
          "MINIMUM_BID_RATE()": "6aadfdd0",
          "cancelAuction(uint256)": "96b5a755",
          "createAuction(uint256,uint256,uint256,uint256)": "431f21da",
          "finishAuction(uint256)": "cf266ed0",
          "getAuction(uint256)": "78bd7935",
          "getAuctionByStatus(bool)": "c00a6fb7",
          "joinAuction(uint256)": "f0194f89",
          "onERC721Received(address,address,uint256,bytes)": "150b7a02",
          "owner()": "8da5cb5b",
          "renounceOwnership()": "715018a6",
          "transferOwnership(address)": "f2fde38b"
        }
      }
    }
  }
}